:100000000C94D3000C94FB000C94FB000C94FB00AC
:100010000C94FB000C94FB000C94FB000C94FB0074
:100020000C94FB000C94FB000C946C150C94E815DC
:100030000C94FB000C94FB000C94FB000C94FB0054
:100040000C94FB000C94FB000C94FB000C94FB0044
:100050000C94FB000C94FB000C94FB000C9400151A
:100060000C94FB000C94FB000C94FB000C94FB0024
:100070000C94FB000C94FB000C94FB000C94FB0014
:100080000C94FB000C94FB000C94FB000C94FB0004
:100090000C94FB000C94FB000C94FB000C94FB00F4
:1000A0000C94FB000C94FB000C94FB00040309046B
:1000B00012010002EF0201404123378000010102DA
:1000C000030141726475696E6F204C4C43004172AC
:1000D0006475696E6F204D6963726F0007060504D1
:1000E0000100080A0B0C0D09000000002400270085
:1000F0002A002D00300000000000250028002B0001
:100100002E00310004040404040304050202020268
:1001100004030202020206060606060604040202A0
:100120000204040408020110408040102040804076
:10013000800802040180402010020110801020403D
:1001400040200000000200090F0000030401000C21
:10015000000000000000000000000000000000009F
:1001600000080B0002020200000904000001020264
:1001700000000524001001052401010104240206E9
:100180000524060001070581031000400904010051
:10019000020A000000070502024000000705830272
:1001A00040000000A71611241FBECFEFDAE0DEBF2B
:1001B000CDBF11E0A0E0B1E0E4E6F5E302C00590B8
:1001C0000D92A632B107D9F722E0A6E2B1E001C054
:1001D0001D92AB31B207E1F710E0C3EDD0E004C0EF
:1001E0002197FE010E946819C23DD107C9F70E94FC
:1001F0005B150C94B01A0C94000008956FEF7FEF1C
:1002000081E090E00E94050108950895CF93DF9367
:100210001F92CDB7DEB76983DC01ED91FC910280BE
:10022000F381E02D41E050E0BE016F5F7F4F099503
:100230000F90DF91CF910895EEEFFFE72591349174
:1002400081E02B3F3C4D09F080E0089581508F30D4
:1002500008F052C0E82FF0E0E05DFE4F0C94681902
:10026000510155013F0145014B017C017C017C019D
:1002700059015F0165016B0171017C017701E0E8C3
:10028000F0E080818F7780830895E0E8F0E080815E
:100290008F7D80830895E0E8F0E08081877F808310
:1002A000089584B58F7784BD089584B58F7D84BD0E
:1002B0000895E0E9F0E080818F7780830895E0E998
:1002C000F0E080818F7D80830895E0E9F0E0808117
:1002D000877F80830895E0ECF0E080818F778083D2
:1002E0000895E0ECF0E080818F7D80830895E2EC5A
:1002F000F0E08081877F808308951F93CF93DF9301
:10030000282F30E0F901EE5BFE4F8491F901ED5D9D
:10031000FE4F1491F901EC5FFE4FC491CC23A9F07C
:10032000D62F811116C0EC2FF0E0EE0FFF1FEA5020
:10033000FF4FA591B4918FB7F894D1110DC09C9146
:10034000E12FE095E923EC938FBFDF91CF911F91CF
:1003500008950E942601E7CFEC91E12BEC93F4CFB6
:10036000CF93DF9390E0FC01ED5DFE4F24918C5F15
:100370009E4FFC018491882319F190E0880F991F0A
:10038000FC01E851FF4FA591B491FC01EA50FF4FE9
:10039000C591D491662349F06230A9F08FB7F894E3
:1003A000EC91E22BEC938FBF0BC09FB7F8948C912C
:1003B000E22FE0958E238C938881E823E8839FBF0A
:1003C000DF91CF9108959FB7F8943C91822F80954B
:1003D00083238C93E881E22BE8839FBFF1CF8231A6
:1003E00008F08251E82FF0E0E452FF4FE491ABE7D0
:1003F000B0E08C918F7D9E2F990F990F9072892B71
:100400008C93E770E064E0937C00EAE7F0E08081A1
:100410008064808380917A0086FDFCCF8091780093
:10042000909179000895789484B5826084BD84B5F4
:10043000816084BD85B5826085BD85B5816085BDDF
:10044000EEE6F0E0808181608083E1E8F0E01082F8
:10045000808182608083808181608083E0E8F0E039
:10046000808181608083E1E9F0E080818260808327
:10047000808181608083E0E9F0E080818160808319
:10048000E1ECF0E080818460808380818260808301
:10049000808181608083E3ECF0E0808181608083F3
:1004A000E0ECF0E0808182608083E2ECF0E080812B
:1004B00081608083EAE7F0E08081846080838081CE
:1004C0008260808380818160808380818068808376
:1004D00008953FB7F8948091120290911302A09171
:1004E0001402B091150226B5A89B05C02F3F19F044
:1004F0000196A11DB11D3FBFBA2FA92F982F8827A4
:10050000BC01CD01620F711D811D911D660F771F0A
:10051000881F991F660F771F881F991F08958F9254
:100520009F92AF92BF92CF92DF92EF92FF926B01B8
:100530007C010E9469024B015C011BC021E0C21AD0
:10054000D108E108F10888EE880E83E0981EA11C0E
:10055000B11CC114D104E104F10459F00E946902F4
:10056000681979098A099B09683E734081059105DC
:1005700028F7C114D104E104F10459F7FF90EF907A
:10058000DF90CF90BF90AF909F908F900895089587
:100590004F925F926F927F92AF92BF92CF92DF9213
:1005A000EF92FF920F931F93CF93DF93CDB7DEB7F8
:1005B00029013A019B01AC01241935094609570963
:1005C00089899A89AB89BC89BC01CD016A197B09EB
:1005D0008C099D090E944419A80197012419350925
:1005E000460957090E94AB16CA01B9016A0D7B1D65
:1005F0008C1D9D1DDF91CF911F910F91FF90EF906A
:10060000DF90CF90BF90AF907F906F905F904F90B2
:10061000089510920B0210920A0210920902E7ED5F
:10062000F0E080818160808380EA8093D80089B582
:10063000806189BD89B5826089BD09B400FEFDCFA6
:1006400061E070E080E090E00E948F02E8EDF0E071
:1006500080818F7C80618083E0EEF0E08081807F0C
:100660008083E1EEF0E080818E7E80838DE0809358
:10067000E200559A209A5D98289808958093E900A1
:100680008091F200882319F08AE38093E8000895AE
:1006900083E00E943E030895CF93DF93EC01AB010A
:1006A0000CC0A0E4B0E010C0289A94E69093070232
:1006B0009BEF9093E8004A1B5B0B41155105C1F07D
:1006C0004134510574F7DA019091E80092FFFCCFB4
:1006D0009A2FFB01E41BF50BEC0FFD1F2FEF290FE9
:1006E000992311F39091F1009083922F3196F6CFD8
:1006F000CB01DF91CF910895409105025091060200
:10070000209103023091040242175307B4F49091F0
:10071000E8009570E1F39091E80092FD19C0809394
:10072000F100809105029091060201968F7399273E
:10073000892B19F48EEF8093E80080910502909147
:1007400006020196909306028093050281E00895C7
:1007500080E00895EF92FF920F931F93CF93DF9362
:100760007C01062F142F81E0860F880F0E947C03E6
:1007700083E00E947C03D0E00DC0F701ED0FF11D76
:1007800084910E947C03C82F80E00E947C038C230C
:1007900059F0DF5FD01738F411237CF3F701ED0F28
:1007A000F11D8081EECF81E0DF91CF911F910F91FC
:1007B000FF90EF900895DF92EF92FF920F931F93B7
:1007C000CF93DF93EB01D42EE52EF82E242F352F77
:1007D0000BC09E012F5F3F4FFE018491E9010E94F3
:1007E0007C039801882351F0890101501109232BC2
:1007F00049F0FF2074F388812196F1CFDD24DA944B
:10080000EE24EA948D2D9E2DDF91CF911F910F91B3
:10081000FF90EF90DF9008951F93CF93DF93EC014B
:1008200019818881813A39F0813281F080E0DF914D
:10083000CF911F9108951132B9F747E050E06BE076
:1008400071E080E00E94DB0381E0F1CF133231F0F0
:100850001032A1F01232C9F081E0E9CF8B819A8188
:10086000892798278927B0E0A0E08093070190931B
:100870000801A0930901B0930A01EACF67E070E094
:100880008BE091E00E944C03E5CF8A8180931201B6
:100890000E941C01811116C0E0E0F8E080910B017C
:1008A00090910C01A0910D01B0910E01803B9440FC
:1008B000A105B10551F0808191818737974751F1AA
:1008C00081E0B5CFEEEFFAE0E9CF8091120180FD33
:1008D000F2CFEE3F8AE0F80749F0808191818737B7
:1008E000980721F09093FF0A8093FE0A87E797E725
:1008F00091838083809160008093160288E19BE061
:100900000FB6F894A895809360000FBE9093600096
:1009100081E08DCFA895A0E6B0E08C9188618C93A2
:10092000809116028C93EE3F8AE0F80741F08091A7
:10093000FE0A9091FF0A9183808381E078CF118233
:10094000108281E074CFFC0190819E5F908342E42D
:1009500050E061E671E080E80E94DB0308951092A8
:10096000E90010920602109205029093040280930F
:100970000302089581E08730A8F4282F30E0F901C0
:10098000E050FF4F9081992369F08093E90091E056
:100990009093EB0090819093EC0096E39093ED00A0
:1009A0008F5FE9CFEAEEF0E08EE780831082089552
:1009B0008093E90081E08093EB006093EC0040932A
:1009C000ED000895CF93DF931F92CDB7DEB79FB7A9
:1009D0009983F89487708093E9009091E800892FBB
:1009E000807295FF04C09091F20080E4891B998188
:1009F0009FBF0F90DF91CF91089583E00E94E204A2
:100A000090E008959F92AF92BF92CF92DF92EF92C3
:100A1000FF920F931F93CF93DF931F92CDB7DEB753
:100A2000D82E8B01942EA52E80910B02882309F4D9
:100A300091C08091090280FF05C0E0EEF0E0808166
:100A400082608083E92CFA2CB12C0F2EFAEFCF2E86
:100A5000F02D43C08E151F0411F00CF08E2D2FB712
:100A60002983F8942D2D27702093E9002091E80028
:100A700025FF12C0E81AF108D5FC11C0DD20BCF03A
:100A80002FEF280F882309F1F80130813093F1000E
:100A9000822F0F5F1F4FF4CF89818FBF1EC02FEFB2
:100AA000280F882391F01092F100822FF8CF9FEF4A
:100AB000980F882351F098012F5F3F4FF801049160
:100AC0000093F100892F8901F2CFBB20D1F08AE396
:100AD0008093E800B12C89818FBFE114F10411F4F7
:100AE000BB2029F18D2D0E94E2048111B3CFCA945D
:100AF000CC2099F161E070E080E090E00E948F02EC
:100B0000ECCF8091E80085FD09C08AE38093E8007E
:100B1000E114F10401F7BB24B394DDCFE114F10437
:100B2000D1F6D6FED8CF8AE38093E800D4CF5D9A81
:100B300084E680930802892D9A2D0F90DF91CF9142
:100B40001F910F91FF90EF90DF90CF90BF90AF90EB
:100B50009F9008958FEF9FEFF0CF8FEF9FEFEDCF36
:100B6000CF93DF932091120121110AC021E030E0E0
:100B7000FC013383228380E090E0DF91CF910895E0
:100B8000EC0183E00E94020518161906B4F381E017
:100B900090E09B838A8380E090E0EFCFCF93DF9358
:100BA0001F92CDB7DEB7FB0190910B02992379F12B
:100BB000552384F19FB79983F89487708093E90057
:100BC0006091F20070E0461757070CF4BA01962FB7
:100BD0002FEF290F992351F0289A94E6909307025A
:100BE0009091F1009083922F3196F2CF61157105AB
:100BF00039F08091F200811103C08BE68093E80008
:100C000089818FBFCB010F90DF91CF9108956FEF56
:100C10007FEFF8CF6FEF7FEFF5CFCF93DF931F928A
:100C2000CDB7DEB741E050E0BE016F5F7F4F0E945D
:100C3000CE05019731F4898190E00F90DF91CF913B
:100C400008958FEF9FEFF9CFFC0184859585992357
:100C50002CF02FEF3FEF35872487089582E00E9424
:100C60000D060895CF93DF93EC018C859D85992324
:100C70002CF08C859D85DF91CF91089582E00E94B4
:100C80000D069D878C87F5CFCF93DF931F92CDB74D
:100C9000DEB79FB79983F89487708093E9008091BD
:100CA000F20099819FBF0F90DF91CF910895FC01D1
:100CB00084859585992334F082E00E94440690E073
:100CC0000196089582E00E94440690E00895FC0198
:100CD00082E0808384E08183138212820895809170
:100CE000FB01882319F087EF91E0089587EF91E0E9
:100CF0000E94670681E08093FB01F5CFCF93DF93DD
:100D0000EC018981FB019481890F9927991F08972C
:100D10005CF5EA81FB81309721F47B836A8307C00D
:100D2000FC01808591850097D9F77187608788815C
:100D3000FB0182838981838395818881890F8883E0
:100D400020E0FB018481281788F4A681B78199816E
:100D5000E92FF0E0A20FB11D8C91E050FF4F80838E
:100D60009F5F99832F5FEDCF80E001C081E0DF912D
:100D7000CF9108950F931F93CF93DF938B01FC01C5
:100D8000C281D381209771F0E881F9810190F081CF
:100D9000E02DB801CE010995811105C00884D985DF
:100DA000C02DF0CF80E0DF91CF911F910F9108957A
:100DB000CF93DF93EC018C81882341F00E946F0672
:100DC000BE010E94BA06DF91CF910895CE010E9424
:100DD0000C04F9CF0F931F93CF93DF938B01FC018A
:100DE000C281D381209771F0E881F9810680F78173
:100DF000E02DB801CE010995080F111D0884D98591
:100E0000C02DF0CFF8011082DF91CF911F910F918B
:100E100008950F931F93CF93DF938B01FC01C28141
:100E2000D381209771F0E881F9810480F581E02D6C
:100E3000B801CE010995009731F40884D985C02DF9
:100E4000F0CF90E080E0DF91CF911F910F91089556
:100E5000EF92FF920F931F93CF93DF937B01FC01DF
:100E6000C281D38110E000E0209791F0E881F98100
:100E70000280F381E02DB701CE010995992334F06A
:100E8000080F191F0884D985C02DEECF0FEF1FEF73
:100E9000C801DF91CF911F910F91FF90EF900895BE
:100EA000CF93DF931F92CDB7DEB71982CE010196A3
:100EB0000E94A3040E946F06BE016F5F7F4F0E94D5
:100EC000280789810F90DF91CF9108950F931F9389
:100ED000CF93DF93CDB7DEB729970FB6F894DEBF77
:100EE0000FBECDBF8C0190E080E00E94AF040E9455
:100EF00050071F8299E0998392E09A8391E09E8344
:100F000090EA98879AEF998720910502309106021E
:100F1000275F3F4F3C832B838D83C8010E94AF0422
:100F200049E050E0BE016F5F7F4F80E00E94DB032D
:100F30000E94500781E029960FB6F894DEBF0FBEDD
:100F4000CDBFDF91CF911F910F9108954F925F9286
:100F50006F927F929F92AF92BF92CF92DF92EF9269
:100F6000FF920F931F93CF93DF93CDB7DEB7E62F9A
:100F7000CA01B901FE89AF89B88D998CEA14FB04C6
:100F80000C051D05ECF4A8019701AE14BF04C006C2
:100F9000D106CCF427013801E11118C090E080E0BF
:100FA000DF91CF911F910F91FF90EF90DF90CF9045
:100FB000BF90AF909F907F906F905F904F900895FB
:100FC000A6019501E2CF25013601E6CF621773072E
:100FD0008407950714F4CA01B90146165706680636
:100FE000790614F4C301B201AE14BF04C006D106E1
:100FF00064F483017201E61AF70A080B190BC801A1
:10100000B701620F731F841F951F9F92BF93AF9309
:10101000FF93AA88BB88CC88DD88830172010E9477
:10102000C8020F900F900F900F90EA8DFB8D608398
:10103000718382E090E0B4CF8F929F92AF92BF9283
:10104000CF92DF92EF92FF920F931F93CF93DF9394
:10105000CDB7DEB79F928F921F921F927FEF7F9343
:101060007F931F921F921F921F920E94A6070FB696
:10107000F894DEBF0FBECDBFDF91CF911F910F91CE
:10108000FF90EF90DF90CF90BF90AF909F908F90A8
:1010900008958F929F92AF92BF92CF92DF92EF927C
:1010A000FF920F931F93CF93DF93CDB7DEB79F923D
:1010B0008F921F921F927FEF7F937F931F921F92B9
:1010C0001F921F920E94A6070FB6F894DEBF0FBEB4
:1010D000CDBFDF91CF911F910F91FF90EF90DF90E7
:1010E000CF90BF90AF909F908F900895CF93DF9354
:1010F000EC019C01265F3F4F81E08C838D833F8311
:101100002E83198618862DE131E0398328831C86C9
:101110001B861E861D868F87888B81EC8A870E949E
:101120006F06BE010E947E06DF91CF910895FC01FB
:101130004281FB01248135814217130611F080E0C2
:10114000089531812081213A21F0213241F080E05F
:1011500008953130B1F03330C1F781E008953B306C
:1011600021F03A3041F080E00895FB012281FC013A
:10117000278781E00895FB012281FC01208B81E01B
:10118000089581E00895DC011B96ED91FC911C9778
:10119000309731F41C967C936E931B9708C0F9012D
:1011A0002081318121153105D1F771836083FB01E5
:1011B000248135811D968D919C911E97820F931FDE
:1011C0001E969C938E931D970895DC01FB0188E485
:1011D000808389E4818384E482831D969C911D979A
:1011E0009F709F5B93831D968D919C9192958295A4
:1011F0008F7089279F7089278F708F5B848385E02C
:101200000895EF92FF920F931F93CF93DF93FC010A
:10121000DB019C91913849F090E080E0DF91CF9123
:101220001F910F91FF90EF90089513968C91139753
:10123000823219F090E080E0F1CF14968D919C916C
:1012400022812817190619F090E080E0E7CF8F017E
:10125000C385D485F12CE12C0BC080E00E94DB0318
:101260008F3F9807D9F2E80EF91E0990D881C02D5A
:10127000209749F04C815D816A817B818E81882332
:1012800061F380E8EBCF81E0F8018787C701C6CF23
:10129000CF93DF93CDB7DEB769970FB6F894DEBF73
:1012A0000FBECDBFFC01DB018C918F5F8C939E0143
:1012B0002D5F3F4F83E1D9011D928A95E9F729E01F
:1012C000298384E08A8391E09D8383E08E832A874B
:1012D00021E22B879C879D879F8722E2288B27E02E
:1012E0002B8B25E02C8B8E8B20E430E0388F2F8BDE
:1012F000998F82818B838585898B86858A8B838173
:1013000080688D8B49E150E0BE016F5F7F4F80E0C8
:101310000E94DB0369960FB6F894DEBF0FBECDBF07
:10132000DF91CF9108958091EF01882319F08EED20
:1013300091E008958EED91E00E94760881E080931F
:10134000EF01F5CFCF92DF92EF92FF92CF93DF9331
:10135000EC016A017B0120E030E040E85FE3CB0173
:10136000B6010E94D218181644F40F2EC12CD12CAD
:10137000F0E8EF2EFFE3FF2EF02D20E030E0A90192
:10138000C701B6010E94731788235CF0CC82DD820E
:10139000EE82FF82DF91CF91FF90EF90DF90CF90B0
:1013A0000895C12CD12C7601F1CFCF92DF92EF922C
:1013B000FF92CB01BA0120E030E040E85FE30E94F9
:1013C00007179B01AC0160E070E080E89FE30E949A
:1013D00078179B01AC0160E070E080E89FE30E9419
:1013E00006179B01AC010E9407176B017C0120E0EE
:1013F00030E040E85FE30E94D218181644F40F2E44
:10140000C12CD12CF0E8EF2EFFE3FF2EF02DC70109
:10141000B601FF90EF90DF90CF9008952F923F920A
:101420004F925F926F927F928F929F92AF92BF92F4
:10143000CF92DF92EF92FF920F931F93CF93DF93A0
:10144000EC017B011885112331F18D85882319F179
:10145000072E000C880B990B0E9422182B013C01CF
:1014600089849A84AB84BC84A50194010E9473177B
:1014700088230CF0ABC0B701660F771F072E000C56
:10148000880B990B0E942218A50194010E9406174F
:101490000E94EA177B014E845F8468887988B701CF
:1014A000FF0C880B990B0E942218A30192010E9445
:1014B00006176B017C0120E030E0A9010E94D218E0
:1014C00018160CF0ACC0C701B6010E94F1171B0141
:1014D0008E889F88A88CB98CA5019401C701B6019C
:1014E0000E9406172DEC3CEC4CEC5EE30E94D718F2
:1014F0009B01AC01C501B4010E9407174B015C01BF
:101500008E8A9F8AA88EB98E1123A9F020E030E040
:10151000A9010E94D21818160CF088C069857A8536
:101520008B859C8501E0A50194010E94D2181816B4
:101530000CF081C00A8F112319F08A8D81117DC0B2
:101540008C809D80AE80BF80B10190E080E00E94E1
:101550002018A50194010E94D718AB01BC01CE014F
:101560000E94D5099B01AC01C701B6010E94D718A2
:101570009B01AC01C301B2010E9407176B017C0102
:10158000CE86DF86E88AF98A20E030E0A9010E9451
:10159000731788230CF457C06A817B8161507109ED
:1015A000072E000C880B990B0E9422184B015C013E
:1015B000AC019B01C701B6010E94D21818160CF0AD
:1015C00046C08E869F86A88AB98A41C0CA80DB80C1
:1015D000B6010D2C000C880B990B0E942218A50156
:1015E00094010E9406179B01AC01C301B2010E9445
:1015F000D21818160CF04FCFB701660F771F6C1971
:101600007D09072E000C880B990B0E942218A5015A
:1016100094010E9407170E94EA177B013CCFC70183
:10162000B60190580E94F1171B0152CFB7FAB0943F
:10163000B7F8B09473CF00E07DCFC301B2010E9430
:10164000EA17CB010BC01E861F86188A198A6E8581
:101650007F85888999890E94EA17CB01DF91CF9114
:101660001F910F91FF90EF90DF90CF90BF90AF90C0
:101670009F908F907F906F905F904F903F902F90B2
:101680000895CF93DF93EC017C8F6B8F8D8D9E8DB2
:1016900098A38F8FCE010E940E0A9E8F8D8F4F8D43
:1016A00058A121E08417950721F029A3DF91CF915C
:1016B000089520E0FACFCF93DF93EC0188810E9458
:1016C000EF019C8F8B8FBC01CE010E94410BDF91FB
:1016D000CF9108958F929F92AF92BF92DF92EF9237
:1016E000FF920F931F93CF93DF93EC01F62ED72E2B
:1016F000E42E590160E08F2D0E94B00160E08F2D33
:101700000E947D01F882D982E886B501A801CE0148
:101710000E94A209DF91CF911F910F91FF90EF904E
:10172000DF90BF90AF909F908F9008956FEF7FEF05
:1017300081E090E00E94C5110895992344F0813022
:1017400020E292070CF4089580E090E2089580E092
:1017500090E0F9CF681B790B613021E0720724F02B
:1017600066277727681B790B61152FEF720714F432
:10177000680F791FCB0108958AE291E00E945B0B0C
:10178000809147019091480108950E94821908951F
:101790000E9482190895FF920F931F93CF93DF93B6
:1017A000CDB7DEB764970FB6F894DEBF0FBECDBFDE
:1017B0008C01FC01F380F2E0FF16B1F0FC018681A0
:1017C00097810E94AF040E946F06B8010E9409072A
:1017D0009C01892BD1F4F1E0FF1609F44BC083E0A2
:1017E000F816C9F080E005C0FC01868197810E944F
:1017F000660764960FB6F894DEBF0FBECDBFDF91CB
:10180000CF911F910F91FF90089581E0121613065A
:1018100084F380E0EECFF80182818823C1F1823029
:1018200031F0813059F0833081F080E0E2CF40E840
:101830006DE08EEC90E00E94AA03DBCF40E86BE005
:1018400082EC90E00E94AA03D4CF0E946F068E0122
:101850000F5F1F4FB8010E94EA06F80101900020B7
:10186000E9F73197BF01601B710B40E0C8010E948E
:10187000AA03BFCF60EB70E06115710559F0FB0161
:10188000449150E080E80E94DB0381E0B2CF6CEA33
:1018900070E0F2CF80E0ADCF4F925F926F927F9277
:1018A0008F929F92AF92BF92CF92DF92EF92FF9270
:1018B0000F931F93CF93DF93CDB7DEB7C659D109EE
:1018C0000FB6F894DEBF0FBECDBF3C01122FC75537
:1018D000DF4F2881C95AD040C655DF4F3881CA5AD8
:1018E000D040C555DF4F7881CB5AD040C455DF4F2B
:1018F000D880CC5AD040C355DF4FB880CD5AD040A5
:10190000C255DF4F9880CE5AD040C155DF4F488036
:10191000CF5AD040DC01D1961C921E92D097D4961B
:101920001C92FC0110AE11AE12AE13AE8FEF93E01D
:10193000A0E0B0E084AF95AFA6AFB7AFE05CFF4FDB
:101940001082118212821382349680839183A28343
:10195000B38334961082118212821382349680836C
:101960009183A283B38334961082118212821382F0
:10197000349680839183A283B3833496108211823C
:1019800012821382349680839183A283B383349628
:101990001082118212821382349680839183A283F3
:1019A000B38334961082118212821382349680831C
:1019B0009183A283B38334961082118212821382A0
:1019C000349680839183A283B383349610821182EC
:1019D00012821382349680839183A283B3833496D8
:1019E0001082118212821382349680839183A283A3
:1019F000B3833496108211821282138234968083CC
:101A00009183A283B38334966083D301D3961C93CE
:101A1000D397D5960C93EE2009F48AC081E0CC20B0
:101A200009F488C092E0892BAA2009F485C094E0CB
:101A3000892B882009F482C098E0892B222309F49D
:101A40007FC090E1892B332309F47CC090E2892B7D
:101A5000F30186AB772309F477C081E0DD2009F438
:101A600075C092E0892BBB2009F472C094E0892BE9
:101A7000992009F46FC098E0892B442009F46CC0C8
:101A800090E1892BD301D7968C93812F877019F021
:101A900098E0981B892FFE2CFC0CFA0CF80CF20E27
:101AA000F30E572E5D0C5B0C590C540C95E099838A
:101AB00091E09A8359E05B834C8341EA4D839E8396
:101AC00095E89F836887112309F448C095E09987BA
:101AD00099E09A8799E19B8791E09C8749E24D873D
:101AE0001E8745E14F87188A45E2498B9A8B45E767
:101AF0004B8B9C8B95E99D8B1E8B95E59F8B188E50
:101B000095E6998F1A8E91E89B8F92E09C8F88239F
:101B100009F4EBC395E79D8F91E09E8F95E99F8F28
:101B200088A381E889A383E08AA382E290E018C0B9
:101B300080E075CF90E077CF90E07ACF90E07DCFD6
:101B400090E080CF90E083CF80E088CF90E08ACF94
:101B500090E08DCF90E090CF90E093CF88E090E040
:101B6000F11002C0002399F0E1E0F0E0EC0FFD1F5E
:101B7000E80FF91F45E04083FC01319641E050E059
:101B80004C0F5D1FE40FF51F029641E04083D30127
:101B9000D5964C91442309F4FFC0E1E0F0E0EC0F4E
:101BA000FD1FE80FF91F49E04083E1E0F0E0EC0F92
:101BB000FD1FE80FF91F49E34183E1E0F0E0EC0F7E
:101BC000FD1FE80FF91F45E14283E1E0F0E0EC0F73
:101BD000FD1FE80FF91F1382E1E0F0E0EC0FFD1F9D
:101BE000E80FF91F45E24483E1E0F0E0EC0FFD1F50
:101BF000E80FF91F47E04583E1E0F0E0EC0FFD1F3F
:101C0000E80FF91F45E34683E1E0F0E0EC0FFD1F2C
:101C1000E80FF91F1782E1E0F0E0EC0FFD1FE80F7D
:101C2000F91F46E44087E1E0F0E0EC0FFD1FE80F0C
:101C3000F91F4BE34187E1E0F0E0EC0FFD1FE80FF7
:101C4000F91F41E04287E1E0F0E0EC0FFD1FE80FF3
:101C5000F91F55E65387E1E0F0E0EC0FFD1FE80FB8
:101C6000F91F54E15487E1E0F0E0EC0FFD1FE80FAD
:101C7000F91F55E75587E1E0F0E0EC0FFD1FE80F95
:101C8000F91F54E05687E1E0F0E0EC0FFD1FE80F8C
:101C9000F91F55E95787E1E0F0E0EC0FFD1FE80F71
:101CA000F91F408BE1E0F0E0EC0FFD1FE80FF91F9A
:101CB00041E8418BAC014D5E5F4FE1E0F0E0EC0F9D
:101CC000FD1FE80FF91F62E0628BF30165A9623026
:101CD00008F40EC3A1E0B0E0AC0FBD1F4A0F5B1FBC
:101CE00069E0FA016083FD01E80FF91F49E3448BC5
:101CF000FD01E80FF91F45E1458BFD01E80FF91FD4
:101D0000168AFD01E80FF91F45E2478BFD01E80F38
:101D1000F91F47E0408FFD01E80FF91F45E3418FB0
:101D2000FD01E80FF91F128EFD01E80FF91F46E4CF
:101D3000438FFD01E80FF91F4BE3448FFD01E80FCE
:101D4000F91F41E0458FFD01E80FF91F55E6568F59
:101D5000FD01E80FF91F54E1578FFD01E80FF91F4E
:101D600055E750A3FD01E80FF91F54E051A3FD0111
:101D7000E80FF91F55E952A3FD01E80FF91F43A32E
:101D8000FD01E80FF91F41E844A3FC01B596EA0FF5
:101D9000FB1F869642E04083FF2009F40BC1E1E07F
:101DA000F0E0EC0FFD1FE80FF91F49E04083E1E090
:101DB000F0E0EC0FFD1FE80FF91F41E04183E1E087
:101DC000F0E0EC0FFD1FE80FF91F45E14283E1E071
:101DD000F0E0EC0FFD1FE80FF91F1382E1E0F0E0E7
:101DE000EC0FFD1FE80FF91F47E24483E1E0F0E04C
:101DF000EC0FFD1FE80FF91F4FEF4583E1E0F0E026
:101E0000EC0FFD1FE80FF91F4683E1E0F0E0EC0F57
:101E1000FD1FE80FF91F1782E1E0F0E0EC0FFD1F56
:101E2000E80FF91F1086E1E0F0E0EC0FFD1FE80F6E
:101E3000F91F45E74187E1E0F0E0EC0FFD1FE80FF7
:101E4000F91F40E14287E1E0F0E0EC0FFD1FE80FF1
:101E5000F91F45E94387E1E0F0E0EC0FFD1FE80FD3
:101E6000F91FF486E1E0F0E0EC0FFD1FE80FF91F29
:101E700041EA4587AC01415F5F4FE1E0F0E0EC0FE4
:101E8000FD1FE80FF91F1686EE2091F0A1E0B0E0EB
:101E9000AC0FBD1F4A0F5B1F69E0FA016083AC0104
:101EA0004F5E5F4F8A0F9B1F60E3DC0150966C937F
:101EB000CC20A1F0E1E0F0E0EC0FFD1FE40FF51FF6
:101EC00089E08083FA01319681E090E08C0F9D1FBC
:101ED000E80FF91F4E5F5F4F81E38083AA20A1F0D6
:101EE000E1E0F0E0EC0FFD1FE40FF51F89E08083D7
:101EF000FA013196A1E0B0E0AC0FBD1FEA0FFB1F65
:101F00004E5F5F4F82E380838820A1F0E1E0F0E044
:101F1000EC0FFD1FE40FF51F89E08083FA01319675
:101F200081E090E08C0F9D1FE80FF91F4E5F5F4F1F
:101F300083E380832223A1F0E1E0F0E0EC0FFD1FBA
:101F4000E40FF51F89E08083FA013196A1E0B0E04B
:101F5000AC0FBD1FEA0FFB1F4E5F5F4F84E3808312
:101F60003323A1F0E1E0F0E0EC0FFD1FE40FF51FDB
:101F700089E08083FA01319621E030E02C0F3D1F8B
:101F8000E20FF31F4E5F5F4F85E38083E1E0F0E0F7
:101F9000EC0FFD1FE40FF51F81E88083E1E0F0E026
:101FA000EC0FFD1FE40FF51F82E08183CA01039649
:101FB00020EC2283552009F4F9C0E1E0F0E0EC0FB9
:101FC000FD1FE80FF91F25E02083E1E0F0E0EC0FB2
:101FD000FD1FE80FF91F22E02183E1E0F0E0EC0FA4
:101FE000FD1FE80FF91F25E12283E1E0F0E0EC0F8F
:101FF000FD1FE80FF91F1382E1E0F0E0EC0FFD1F79
:10200000E80FF91F27E22483E1E0F0E0EC0FFD1F69
:10201000E80FF91F2FEF2583E1E0F0E0EC0FFD1F43
:10202000E80FF91F2683E1E0F0E0EC0FFD1FE80F59
:10203000F91F1782E1E0F0E0EC0FFD1FE80FF91F38
:102040001086E1E0F0E0EC0FFD1FE80FF91F25E737
:102050002187E1E0F0E0EC0FFD1FE80FF91F20E120
:102060002287E1E0F0E0EC0FFD1FE80FF91F25E902
:102070002387E1E0F0E0EC0FFD1FE80FF91F548625
:10208000E1E0F0E0EC0FFD1FE80FF91F21EA2587E2
:102090009C01215F3F4FE1E0F0E0EC0FFD1FE80FF6
:1020A000F91F16867723B1F041E050E04C0F5D1F19
:1020B000240F351F49E0D9014C939C012F5E3F4FFF
:1020C000E1E0F0E0EC0FFD1F8E0F9F1F4AEBDC01FB
:1020D00050964C93DD20A1F0E1E0F0E0EC0FFD1F05
:1020E000E20FF31F89E08083F901319641E050E06F
:1020F0004C0F5D1FE40FF51F2E5F3F4F8BEB80836E
:10210000BB20A1F0E1E0F0E0EC0FFD1FE20FF31FB8
:1021100089E08083F901319681E090E08C0F9D1F6A
:10212000E80FF91F2E5F3F4F84EC80839920A1F0C8
:10213000E1E0F0E0EC0FFD1FE20FF31F89E0808388
:10214000F9013196A1E0B0E0AC0FBD1FEA0FFB1F13
:102150002E5F3F4F85EC80834420A1F0E1E0F0E06A
:10216000EC0FFD1FE20FF31F89E08083F901319628
:1021700041E050E04C0F5D1FE40FF51F2E5F3F4F15
:1021800088EC8083E1E0F0E0EC0FFD1FE20FF31F2D
:1021900081E88083E1E0F0E0EC0FFD1FE20FF31F28
:1021A00082E08183C901039640EC42835C01FFEF2A
:1021B000AF1ABF0A21E030E02C0F3D1F820F931FA2
:1021C00020ECDC012C93C5010E94C50B4C01A5013C
:1021D000BE016F5F7F4F0E94A71A87E090E00E94C8
:1021E000C80B6C01FC011182108293828282B5823D
:1021F000A48216820E949309B6010E94C30811238B
:10220000D1F0D301D3968C91D397982F969596952C
:102210009695D4969C93D497877019F09F5FD49627
:102220009C93F30184A990E00E94C50BD301D19641
:102230009C938E93D097F30184A925A991E0211155
:1022400001C090E0890FFF0CF80EF301EF56FF4F2D
:10225000550CF50CF082D3011D921D921D921C921B
:102260001397F301148215821682178218961D9215
:102270001D921D921C921B97148615861686178632
:1022800050961D921D921D921C925397148A158A86
:10229000168A178A58961D921D921D921C925B9762
:1022A000148E158E168E178E90961D921D921D926D
:1022B0001C92939714A215A216A217A298961D928B
:1022C0001D921D921C929B9790E080E082309105B8
:1022D000A4F5FC017696EE0FFF1FE60DF71D2FEF1C
:1022E0003FEF318320830196F1CF8CE190E038CC31
:1022F000A1E0B0E0AC0FBD1F4A0F5B1F65E7FA011C
:102300006083FD01E80FF91F41E0448BFD01E80FF8
:10231000F91F45E9458BFD01E80FF91F44E0468BA5
:10232000FD01E80FF91F41E8478BFC017896EA0FA1
:10233000FB1F499643E040832FCD90E080E0F301FE
:1023400024A92817190649F044F000A8F1A9E02DA6
:10235000E80FF91F10820196F2CFCA56DF4F0FB671
:10236000F894DEBF0FBECDBFDF91CF911F910F91CB
:10237000FF90EF90DF90CF90BF90AF909F908F90A5
:102380007F906F905F904F9008958F92AF92CF9211
:10239000EF920F931F93CF93019741F0CF911F912D
:1023A0000F91EF90CF90AF908F9008956F3F7F4F38
:1023B000A9F71F921F921F921F921F921F92C1E0B6
:1023C000CF93812CA12CC12CE12C00E020E045E032
:1023D00063E08CE491E00E944C0CEAE2F1E080E0E2
:1023E00094E09383828380E090E0A0E8B0E481876A
:1023F0009287A387B487C587168A178A108E118E95
:10240000128E0AE017ED23E23CE340E06CE170E05D
:10241000CF010E946A0B8DB79EB707960FB6F8944E
:102420009EBF0FBE8DBFBACFAF92BF92CF92DF9249
:10243000EF92FF920F931F93CF93DF93CDB7DEB749
:102440005C01CA01CDB6DEB679014FEFE41AF40A99
:10245000EDB7FEB7EE19FF090FB6F894FEBF0FBE39
:10246000EDBF0DB71EB70F5F1F4F6183A901BC0100
:10247000C80101960E94A71AF5018381A701B8013E
:1024800080640E9402050FB6F894DEBE0FBECDBE7A
:10249000DF91CF911F910F91FF90EF90DF90CF9040
:1024A000BF90AF9008952F923F924F925F926F929C
:1024B0007F928F929F92AF92BF92CF92DF92EF92D4
:1024C000FF920F931F93CF93DF9300D000D0CDB72F
:1024D000DEB73C012DB73EB73C832B83FC01EF56A2
:1024E000FF4F8081ADB7BEB7A81BB1090FB6F894F6
:1024F000BEBF0FBEADBFEDB7FEB731961F019F0146
:10250000512C412CD301D4968C91D4978415150469
:1025100079F074F0D096ED91FC91E40DF51D808179
:10252000F901E40DF51D8083BFEF4B1A5B0AEACF7A
:10253000F30185A98823A1F130E020E007C088E0FD
:10254000FE01E20FF31F81832F5F3F4F22303105E1
:10255000BCF4F9017696EE0FFF1FE60DF71D8081A2
:102560009181992364F368E671E00E9454196DE249
:1025700070E00E945419FE01E20FF31F6183E4CF63
:102580008A81F0E18F9F9001112489818F70822BC5
:10259000F101E40DF51D808392012F5F3F4F29016A
:1025A000D301D6966C91D6974101840C951CDC968C
:1025B000AD90BD90CD90DC90DF97D896ED90FD90DA
:1025C0000D911C91DB972D913D914D915C91617026
:1025D000C3010E944908480E591EF30166A9410132
:1025E000840C951CEC5BFF4FA080B180C280D3802F
:1025F0003497E080F18002811381D30114962D91EC
:102600003D914D915C91179766956170C3010E9451
:102610004908480E591EF30166A94101840C951C16
:10262000E45BFF4FA080B180C280D3803497E0800C
:10263000F18002811381D30118962D913D914D9126
:102640005C911B9762FB662760F9C3010E944908F1
:10265000480E591E4101840C951CF301EC5AFF4FA2
:10266000A080B180C280D380F30166A9E05BFF4FF8
:10267000E080F18002811381D3011C962D913D9160
:102680004D915C911F9763FB662760F9C3010E941F
:102690004908480E591EF30166A94101840C951C96
:1026A000E45AFF4FA080B180C280D3803497E0808D
:1026B000F18002811381D30150962D913D914D916E
:1026C0005C91539762956170C3010E944908480E5E
:1026D000591EF30166A94101840C951CEC59FF4F6A
:1026E000A080B180C280D3803497E080F1800281E5
:1026F0001381D30154962D913D914D915C91579743
:1027000065FB662760F9C3010E944908480E591EFF
:10271000F30167A94101840C951CE459FF4FA08087
:10272000B180C280D3803497E080F1800281138130
:10273000D3015C962D913D914D915C915F976170B5
:10274000C3010E941C08480E591EF30167A94101EC
:10275000840C951CEC58FF4FA080B180C280D380C0
:102760003497E080F18002811381D30158962D9136
:102770003D914D915C915B9766956170C3010E949C
:102780001C08480E591EF30167A94101840C951CD1
:10279000E458FF4FA080B180C280D3803497E0809E
:1027A000F18002811381D30190962D913D914D913D
:1027B0005C91939762FB662760F9C3010E941C0835
:1027C000480E591EF30167A94101840C951CEC5772
:1027D000FF4FA080B180C280D3803497E080F18029
:1027E00002811381D30194962D913D914D915C917D
:1027F000979763FB662760F9C3010E941C08480E87
:10280000591EF30167A94101840C951CE457FF4F41
:10281000A080B180C280D3803497E080F1800281B3
:102820001381D30198962D913D914D915C919B9789
:1028300062956170C3010E941C080E949309F30114
:10284000EF56FF4F208130E03197A10160810E9457
:102850001412EB81FC810FB6F894FEBF0FBEEDBFE2
:102860000F900F900F900F90DF91CF911F910F91CC
:10287000FF90EF90DF90CF90BF90AF909F908F90A0
:102880007F906F905F904F903F902F900895FC0144
:10289000408B518B628B738B22A9211101C008954B
:1028A0000E945312FCCF0F931F93CF93DF930E948C
:1028B000BC0BEC01BC0180912801909129010E9480
:1028C000AA0B2091260130912701820F931F0E94AD
:1028D0009D0B8C01AC01990F660B770B8CE491E09A
:1028E0000E9447141093270100932601D0932901D9
:1028F000C093280162E370E080E090E00E948F02C4
:10290000DF91CF911F910F910895FC0162AB0E945E
:1029100053120895AF92BF92CF92DF92EF92FF923F
:102920000F931F93CF93DF93CAE2D1E080E090E151
:102930009B838A8381E088878D8740E050E060E058
:102940007EE3CE010E94A20980E090E0A0E8BFE310
:1029500089879A87AB87BC870E94BC0B909329011B
:1029600080932801BC01990F880B990B1F921F922D
:1029700020E22F931F92A12CB12C6501E12C14E0D1
:10298000F12E00E010E020E030E0A9010E94C80232
:102990000F900F900F900F90709327016093260176
:1029A00061E08CE491E00E9485141092A4011092E1
:1029B000A5011092A6011092A70180E090E2A0E08C
:1029C000B0E08093A8019093A901A093AA01B093CD
:1029D000AB014091260150912701052E000C660B9A
:1029E000770B8CE491E00E944714DF91CF911F9107
:1029F0000F91FF90EF90DF90CF90BF90AF90089530
:102A00001F920F920FB60F9211240F931F932F93C3
:102A10003F934F935F936F937F938F939F93AF9366
:102A2000BF9300910E0210910F022091100230917D
:102A3000110290910D02B901A8014F5F5F4F6F4FD6
:102A40007F4F83E0890F8D3740F086E8890FB90109
:102A5000A8014E5F5F4F6F4F7F4F80930D024093F1
:102A60000E0250930F026093100270931102809136
:102A7000120290911302A0911402B09115020196D6
:102A8000A11DB11D8093120290931302A093140212
:102A9000B0931502BF91AF919F918F917F916F91EC
:102AA0005F914F913F912F911F910F910F900FBE0A
:102AB0000F901F9018950E9413028CE092E00E94E4
:102AC00009030E948A140E94531480E090E0892B2D
:102AD000D1F30E940000F7CF1F920F920FB60F9212
:102AE00011242F933F934F935F936F937F938F9313
:102AF0009F93AF93BF93CF93EF93FF93E1EEF0E0FB
:102B0000C0818081837F8083C3FD18C0C2FD21C046
:102B1000C4FD3BC0C0FF4AC0E2EEF0E080818E7E83
:102B200080618083E1EEF0E080818E7E8083809101
:102B300009028E7E81608093090238C042E360E022
:102B400080E00E94D80410920B0288E08093F0008D
:102B5000DDCF83E00E943E0380910802882341F08C
:102B600080910802815080930802811101C05D9814
:102B700080910702882361F280910702815080933F
:102B800007028111C5CF2898C3CFE2EEF0E0808123
:102B90008E7E81608083E1EEF0E080818F7E808395
:102BA000809109028E7E806180930902FF91EF91EE
:102BB000CF91BF91AF919F918F917F916F915F91D5
:102BC0004F913F912F910F900FBE0F901F9018952E
:102BD0001F920F920FB60F9211242F933F934F9392
:102BE0005F936F937F938F939F93AF93BF93EF9375
:102BF000FF93CF93DF93CDB7DEB72897DEBFCDBF6E
:102C00001092E9008091E80083FF2EC088E0FE0169
:102C100031969FEF980F882331F08091F1008083E7
:102C2000892F3196F6CF289A84E68093070282EFA7
:102C30008093E8009981992384F18EEF8093E800D6
:102C4000892F807609F075C08A814B812C81322FC3
:102C5000242F81112EC0903829F1E1EFF0E010828D
:102C600010828EEF8093E80028960FB6F894DEBFAE
:102C70000FBECDBFDF91CF91FF91EF91BF91AF918B
:102C80009F918F917F916F915F914F913F912F9184
:102C90000F900FBE0F901F9018958091E80080FF55
:102CA000FCCFCECF80910A02E1EFF0E0808310826A
:102CB000D8CF8130A9F08330F9F0853049F18630E2
:102CC00079F1873009F43FC0883079F1893049F6CD
:102CD0009370C9F50E94BA048B8180930B02C1CF17
:102CE0009111BFCF2130310509F0BBCF80910A028D
:102CF0008D7F80930A02B5CF9111B3CF213031057A
:102D000009F0AFCF80910A02826080930A02A9CFB6
:102D10008091E80080FFFCCF40684093E300A1CFA2
:102D2000CE0101960E94CB0B0CC081E08093F10094
:102D300098CF8F8198850E94AF04CE0101960E94A2
:102D4000D80681118ECF81E28093EB008DCF0E9457
:102D5000FE000C94960B052E97FB1EF400940E9427
:102D6000C21657FD07D00E94D51607FC03D04EF4BB
:102D70000C94C21650954095309521953F4F4F4F7A
:102D80005F4F089590958095709561957F4F8F4F17
:102D90009F4F08950E94F716A59F900DB49F900D28
:102DA000A49F800D911D11240895A1E21A2EAA1B43
:102DB000BB1BFD010DC0AA1FBB1FEE1FFF1FA217EB
:102DC000B307E407F50720F0A21BB30BE40BF50BE8
:102DD000661F771F881F991F1A9469F76095709571
:102DE000809590959B01AC01BD01CF010895A29FF4
:102DF000B001B39FC001A39F700D811D1124911DCF
:102E0000B29F700D811D1124911D08955058BB274C
:102E1000AA270E941E170C9498180E948A1838F04E
:102E20000E94911820F039F49F3F19F426F40C9475
:102E300087180EF4E095E7FB0C948118E92F0E94A7
:102E4000A91858F3BA17620773078407950720F08B
:102E500079F4A6F50C94CB180EF4E0950B2EBA2F4E
:102E6000A02D0B01B90190010C01CA01A001112490
:102E7000FF27591B99F0593F50F4503E68F11A163C
:102E8000F040A22F232F342F4427585FF3CF4695CD
:102E900037952795A795F0405395C9F77EF41F16EF
:102EA000BA0B620B730B840BBAF09150A1F0FF0FB9
:102EB000BB1F661F771F881FC2F70EC0BA0F621FA5
:102EC000731F841F48F4879577956795B795F79595
:102ED0009E3F08F0B0CF9395880F08F09927EE0F2A
:102EE0009795879508950E945D1808F481E00895EC
:102EF0000E948C170C9498180E94911858F00E9408
:102F00008A1840F029F45F3F29F00C948118511180
:102F10000C94CC180C9487180E94A91868F3992374
:102F2000B1F3552391F3951B550BBB27AA276217C5
:102F30007307840738F09F5F5F4F220F331F441FD2
:102F4000AA1FA9F335D00E2E3AF0E0E832D0915006
:102F50005040E695001CCAF72BD0FE2F29D0660FF3
:102F6000771F881FBB1F261737074807AB07B0E836
:102F700009F0BB0B802DBF01FF2793585F4F3AF03C
:102F80009E3F510578F00C9481180C94CC185F3F4B
:102F9000E4F3983ED4F3869577956795B795F795C2
:102FA0009F5FC9F7880F911D9695879597F90895AA
:102FB000E1E0660F771F881FBB1F62177307840746
:102FC000BA0720F0621B730B840BBA0BEE1F88F755
:102FD000E09508950E94F1176894B1110C94CC18F3
:102FE00008950E94B11888F09F5798F0B92F99273B
:102FF000B751B0F0E1F0660F771F881F991F1AF0E4
:10300000BA95C9F714C0B13091F00E94CB18B1E065
:1030100008950C94CB18672F782F8827B85F39F064
:10302000B93FCCF3869577956795B395D9F73EF47C
:1030300090958095709561957F4F8F4F9F4F089524
:10304000E89409C097FB3EF4909580957095619542
:103050007F4F8F4F9F4F9923A9F0F92F96E9BB27F8
:103060009395F695879577956795B795F111F8CF74
:10307000FAF4BB0F11F460FF1BC06F5F7F4F8F4FDF
:103080009F4F16C0882311F096E911C0772321F0D5
:103090009EE8872F762F05C0662371F096E8862F6D
:1030A00070E060E02AF09A95660F771F881FDAF7C4
:1030B000880F9695879597F90895990F0008550FF1
:1030C000AA0BE0E8FEEF16161706E807F907C0F0AE
:1030D00012161306E407F50798F0621B730B840BB6
:1030E000950B39F40A2661F0232B242B252B21F490
:1030F00008950A2609F4A140A6958FEF811D811D30
:10310000089597F99F6780E870E060E008959FEF69
:1031100080EC089500240A9416161706180609066E
:10312000089500240A94121613061406050608953D
:10313000092E0394000C11F4882352F0BB0F40F4C5
:10314000BF2B11F460FF04C06F5F7F4F8F4F9F4F05
:10315000089557FD9058440F551F59F05F3F71F087
:103160004795880F97FB991F61F09F3F79F08795EE
:103170000895121613061406551FF2CF4695F1DF77
:1031800008C0161617061806991FF1CF8695710507
:10319000610508940895E894BB2766277727CB013B
:1031A00097F908950E945D1808F48FEF08950E9422
:1031B000EA180C9498180E948A1838F00E94911806
:1031C00020F0952311F00C9481180C948718112489
:1031D0000C94CC180E94A91870F3959FC1F3950F19
:1031E00050E0551F629FF001729FBB27F00DB11D8B
:1031F000639FAA27F00DB11DAA1F649F6627B00D1B
:10320000A11D661F829F2227B00DA11D621F739F03
:10321000B00DA11D621F839FA00D611D221F749F11
:103220003327A00D611D231F849F600D211D822F58
:10323000762F6A2F11249F5750409AF0F1F088237F
:103240004AF0EE0FFF1FBB1F661F771F881F9150AC
:103250005040A9F79E3F510580F00C9481180C94C2
:10326000CC185F3FE4F3983ED4F386957795679545
:10327000B795F795E7959F5FC1F7FE2B880F911DD6
:103280009695879597F90895DB018F939F930E94F8
:10329000CA16BF91AF91A29F800D911DA39F900D63
:1032A000B29F900D1124089597FB072E16F40094F9
:1032B00007D077FD09D00E946E1907FC05D03EF4B7
:1032C000909581959F4F0895709561957F4F0895D2
:1032D000EE0FFF1F0590F491E02D0994AA1BBB1B74
:1032E00051E107C0AA1FBB1FA617B70710F0A61B06
:1032F000B70B881F991F5A95A9F780959095BC0127
:10330000CD0108950F931F93CF93DF9382309105E2
:1033100010F482E090E0E0911902F0911A0230E09E
:1033200020E0B0E0A0E0309799F42115310509F4D0
:103330004AC0281B390B24303105D8F58A819B817E
:103340006115710589F1FB0193838283FE0111C030
:10335000408151810281138148175907E0F04817D5
:10336000590799F4109761F012960C9312971396DF
:103370001C933296CF01DF91CF911F910F91089549
:103380000093190210931A02F4CF2115310551F060
:103390004217530738F0A901DB019A01BD01DF0193
:1033A000F801C1CFEF01F9CF90931A02809319026F
:1033B000CDCFFE01E20FF31F81939193225031098B
:1033C00039832883D7CF2091170230911802232BFD
:1033D00041F4209115013091160130931802209389
:1033E000170220911301309114012115310541F488
:1033F0002DB73EB74091170150911801241B350B92
:10340000E0911702F0911802E217F307A0F42E1BC7
:103410003F0B2817390778F0AC014E5F5F4F241738
:10342000350748F04E0F5F1F509318024093170264
:10343000819391939FCFF0E0E0E09CCFCF93DF9317
:103440000097E9F0FC01329713821282A0911902D1
:10345000B0911A02ED0130E020E01097A1F4208134
:103460003181820F931F2091170230911802281783
:10347000390709F061C0F0931802E0931702DF9159
:10348000CF910895EA01CE17DF07E8F54A815B8105
:103490009E0141155105B1F7E901FB83EA8349918A
:1034A0005991C40FD51FEC17FD0761F480819181FC
:1034B0000296840F951FE901998388838281938105
:1034C0009B838A83F0E0E0E012968D919C911397A4
:1034D0000097B9F52D913C911197CD010296820F7D
:1034E000931F20911702309118022817390739F6D7
:1034F000309751F510921A0210921902B0931802E7
:10350000A0931702BCCFD383C28340815181840F23
:10351000951FC817D90761F44E5F5F4F8881998165
:10352000480F591F518340838A819B8193838283F3
:103530002115310509F0B0CFF0931A02E09319027A
:103540009ECFFD01DC01C0CF13821282D7CFFB01D9
:10355000DC0102C001900D9241505040D8F708950F
:04356000F894FFCF0D
:1035640000C18081000000FFFFFFFF00E1000000B8
:1035740000000000001B02800000000000970848C3
:06358400090109E5080041
:00000001FF
