:100000000C94D3000C94FB000C94FB000C94FB00AC
:100010000C94FB000C94FB000C94FB000C94FB0074
:100020000C94FB000C94FB000C94CF0E0C944B0F23
:100030000C94FB000C94FB000C94FB000C94FB0054
:100040000C94FB000C94FB000C94FB000C94FB0044
:100050000C94FB000C94FB000C94FB000C94630EBE
:100060000C94FB000C94FB000C94FB000C94FB0024
:100070000C94FB000C94FB000C94FB000C94FB0014
:100080000C94FB000C94FB000C94FB000C94FB0004
:100090000C94FB000C94FB000C94FB000C94FB00F4
:1000A0000C94FB000C94FB000C94FB00040309046B
:1000B00012010002EF0201404123378000010102DA
:1000C000030141726475696E6F204C4C43004172AC
:1000D0006475696E6F204D6963726F0007060504D1
:1000E0000100080A0B0C0D09000000002400270085
:1000F0002A002D00300000000000250028002B0001
:100100002E00310004040404040304050202020268
:1001100004030202020206060606060604040202A0
:100120000204040408020110408040102040804076
:10013000800802040180402010020110801020403D
:1001400040200000000200090F0000030401000C21
:10015000000000000000000000000000000000009F
:1001600000080B0002020200000904000001020264
:1001700000000524001001052401010104240206E9
:100180000524060001070581031000400904010051
:10019000020A000000070502024000000705830272
:1001A00040000000131211241FBECFEFDAE0DEBFC3
:1001B000CDBF11E0A0E0B1E0ECE3FCE202C00590AD
:1001C0000D92A632B107D9F722E0A6E2B1E001C054
:1001D0001D92AB31B207E1F710E0C3EDD0E004C0EF
:1001E0002197FE010E94D414C23DD107C9F70E9495
:1001F000BE0E0C941C160C94000008956FEF7FEF58
:1002000081E090E00E94050108950895CF93DF9367
:100210001F92CDB7DEB76983DC01ED91FC910280BE
:10022000F381E02D41E050E0BE016F5F7F4F099503
:100230000F90DF91CF910895EEEFFFE72591349174
:1002400081E02B3F3C4D09F080E0089581508F30D4
:1002500008F052C0E82FF0E0E05DFE4F0C94D4149B
:10026000510155013F0145014B017C017C017C019D
:1002700059015F0165016B0171017C017701E0E8C3
:10028000F0E080818F7780830895E0E8F0E080815E
:100290008F7D80830895E0E8F0E08081877F808310
:1002A000089584B58F7784BD089584B58F7D84BD0E
:1002B0000895E0E9F0E080818F7780830895E0E998
:1002C000F0E080818F7D80830895E0E9F0E0808117
:1002D000877F80830895E0ECF0E080818F778083D2
:1002E0000895E0ECF0E080818F7D80830895E2EC5A
:1002F000F0E08081877F808308951F93CF93DF9301
:10030000282F30E0F901EE5BFE4F8491F901ED5D9D
:10031000FE4F1491F901EC5FFE4FC491CC23A9F07C
:10032000D62F811116C0EC2FF0E0EE0FFF1FEA5020
:10033000FF4FA591B4918FB7F894D1110DC09C9146
:10034000E12FE095E923EC938FBFDF91CF911F91CF
:1003500008950E942601E7CFEC91E12BEC93F4CFB6
:10036000CF93DF9390E0FC01ED5DFE4F24918C5F15
:100370009E4FFC018491882319F190E0880F991F0A
:10038000FC01E851FF4FA591B491FC01EA50FF4FE9
:10039000C591D491662349F06230A9F08FB7F894E3
:1003A000EC91E22BEC938FBF0BC09FB7F8948C912C
:1003B000E22FE0958E238C938881E823E8839FBF0A
:1003C000DF91CF9108959FB7F8943C91822F80954B
:1003D00083238C93E881E22BE8839FBFF1CF8231A6
:1003E00008F08251E82FF0E0E452FF4FE491ABE7D0
:1003F000B0E08C918F7D9E2F990F990F9072892B71
:100400008C93E770E064E0937C00EAE7F0E08081A1
:100410008064808380917A0086FDFCCF8091780093
:100420009091790008953F924F925F926F927F92E0
:100430008F929F92AF92BF92CF92DF92EF92FF92F4
:100440000F931F93CF93DF9300D000D000D0CDB790
:10045000DEB78091F5010E94EF019A838983909322
:100460001102809310020091120210911302109356
:100470001502009314023090FD01332089F1809120
:100480000202882369F129813A81B901330F880B6F
:10049000990B0E948E132B013C01C090FE01D0905D
:1004A000FF01E0900002F0900102AC019B01C70146
:1004B000B6010E943E1418160CF0B1C069817A8111
:1004C000660F771F072E000C880B990B0E948E1366
:1004D000A70196010E9472120E9456137A836983C3
:1004E0004090030250900402609005027090060252
:1004F000A981BA81BD01BB0F880B990B0E948E1395
:10050000A30192010E9472124B015C0120E030E0D5
:10051000A9010E943E1418160CF0A7C0C501B40131
:100520000E945D137E836D83C0900B02D0900C02FD
:10053000E0900D02F0900E02A7019601C501B401F2
:100540000E9472122DEC3CEC4CEC5EE30E944314D2
:10055000A70196010E9473126B017C01C0920B02ED
:10056000D0920C02E0920D02F0920E02332009F4B8
:1005700080C020E030E0A9010E943E14181624F04B
:10058000F7FAF094F7F8F0948091FE019091FF0152
:10059000A0910002B091010289839A83AB83BC834E
:1005A00033243394A7019601BC01CD010E943E146F
:1005B00018160CF0312C30920F02A70196016981B8
:1005C0007A818B819C810E943E1418160CF051C0D8
:1005D000C301B2010E94561370931302609312027A
:1005E00081E00617170709F480E08093160226962B
:1005F0000FB6F894DEBF0FBECDBFDF91CF911F9134
:100600000F91FF90EF90DF90CF90BF90AF909F90B1
:100610008F907F906F905F904F903F900895A09043
:10062000F701B090F801B5010B2C000C880B990B69
:100630000E948E13A70196010E947212A3019201DB
:100640000E94DF1287FF4CCF69817A81660F771F86
:100650006A197B09072E000C880B990B0E948E13D8
:10066000A70196010E94731237CFC501B4019058BB
:1006700057CFAD81BE81BD0190E080E00E948C1318
:100680002091F9013091FA014091FB015091FC0158
:100690000E94431420E030E040E85FE30E947312C0
:1006A0009B01AC0160E070E080E89FE30E94E412EF
:1006B0009B01AC0160E070E080E89FE30E94721251
:1006C0009B01AC010E9473126B017C0120E030E0C1
:1006D00040E85FE30E943E14181634F4C12CD12C7C
:1006E00080E8E82E8FE3F82EA7019601C501B4013A
:1006F0000E944314A30192010E9473126B017C01BA
:10070000C0920302D0920402E0920502F092060227
:1007100020E030E0A9010E94DF1287FF11C0109293
:1007200003021092040210920502109206026091D8
:1007300003027091040280910502909106024ACF53
:100740006091F7017091F80161507109072E000C5A
:10075000880B990B0E948E134B015C01AC019B012D
:10076000C701B6010E943E1418160CF780920302CE
:1007700090920402A0920502B0920602D8CF78941B
:1007800084B5826084BD84B5816084BD85B5826096
:1007900085BD85B5816085BDEEE6F0E08081816034
:1007A0008083E1E8F0E01082808182608083808134
:1007B00081608083E0E8F0E0808181608083E1E90E
:1007C000F0E0808182608083808181608083E0E9C5
:1007D000F0E0808181608083E1ECF0E080818460E2
:1007E0008083808182608083808181608083E3EC6C
:1007F000F0E0808181608083E0ECF0E080818260C5
:100800008083E2ECF0E0808181608083EAE7F0E0C1
:100810008081846080838081826080838081816028
:10082000808380818068808308953FB7F8948091A9
:100830005E0190915F01A0916001B091610126B5C8
:10084000A89B05C02F3F19F00196A11DB11D3FBF08
:10085000BA2FA92F982F8827BC01CD01620F711DD7
:10086000811D911D660F771F881F991F660F771FC7
:10087000881F991F08958F929F92AF92BF92CF9237
:10088000DF92EF92FF926B017C010E9415044B01F5
:100890005C011BC021E0C21AD108E108F10888EE12
:1008A000880E83E0981EA11CB11CC114D104E10480
:1008B000F10459F00E941504681979098A099B0905
:1008C000683E73408105910528F7C114D104E10405
:1008D000F10459F7FF90EF90DF90CF90BF90AF9069
:1008E0009F908F90089508954F925F926F927F929C
:1008F000AF92BF92CF92DF92EF92FF920F931F932E
:10090000CF93DF93CDB7DEB729013A019B01AC014C
:10091000241935094609570989899A89AB89BC89FF
:10092000BC01CD016A197B098C099D090E94B01494
:10093000A801970124193509460957090E94171281
:10094000CA01B9016A0D7B1D8C1D9D1DDF91CF91E0
:100950001F910F91FF90EF90DF90CF90BF90AF90DD
:100960007F906F905F904F9008954F925F926F923B
:100970007F928F929F92AF92BF92CF92DF92EF922F
:10098000FF920F931F93CF93DF9300D000D0CDB78A
:10099000DEB7FA0109831A832B833C8326013701D2
:1009A000D50104151505260537050CF059C0A90118
:1009B000980187017601882309F459C04F015B0132
:1009C00082169306A406B50614F449015A01C8011B
:1009D000B7018E149F04A006B10614F4C501B4013A
:1009E000A980BA80CB80DC804A145B046C047D044F
:1009F00064F427013801461A570A680A790AC301C4
:100A0000B201620F731F841F951FBA83A9831F92BF
:100A10001F92EFEFEF93EF93A12CB12C65010E9491
:100A200074040F900F900F900F90E981FA8160830A
:100A3000718382E090E00F900F900F900F90DF9104
:100A4000CF911F910F91FF90EF90DF90CF90BF90CB
:100A5000AF909F908F907F906F905F904F90089590
:100A6000A7019601E980FA800B811C81A4CF90E058
:100A700080E0E1CF1092570110925601109255017B
:100A8000E7EDF0E080818160808380EA8093D80088
:100A900089B5806189BD89B5826089BD09B400FED0
:100AA000FDCF61E070E080E090E00E943B04E8ED63
:100AB000F0E080818F7C80618083E0EEF0E08081D7
:100AC000807F8083E1EEF0E080818E7E80838DE008
:100AD0008093E200559A209A5D9828980895809313
:100AE000E9008091F200882319F08AE38093E800FE
:100AF000089583E00E946F050895CF93DF93EC0182
:100B0000AB010CC0A0E4B0E010C0289A94E690932A
:100B100053019BEF9093E8004A1B5B0B4115510575
:100B2000C1F04134510574F7DA019091E80092FF69
:100B3000FCCF9A2FFB01E41BF50BEC0FFD1F2FEFF1
:100B4000290F992311F39091F1009083922F319600
:100B5000F6CFCB01DF91CF91089540915101509193
:100B6000520120914F013091500142175307B4F4C4
:100B70009091E8009570E1F39091E80092FD19C022
:100B80008093F100809151019091520101968F73F1
:100B90009927892B19F48EEF8093E80080915101F9
:100BA000909152010196909352018093510181E0FE
:100BB000089580E00895EF92FF920F931F93CF93D3
:100BC000DF937C01062F142F81E0860F880F0E948F
:100BD000AD0583E00E94AD05D0E00DC0F701ED0F3B
:100BE000F11D84910E94AD05C82F80E00E94AD05E3
:100BF0008C2359F0DF5FD01738F411237CF3F70111
:100C0000ED0FF11D8081EECF81E0DF91CF911F913B
:100C10000F91FF90EF900895DF92EF92FF920F9364
:100C20001F93CF93DF93EB01D42EE52EF82E242FC4
:100C3000352F0BC09E012F5F3F4FFE018491E901CC
:100C40000E94AD059801882351F0890101501109D6
:100C5000232B49F0FF2074F388812196F1CFDD2406
:100C6000DA94EE24EA948D2D9E2DDF91CF911F9181
:100C70000F91FF90EF90DF9008951F93CF93DF9334
:100C8000EC0119818881813A39F0813281F080E06C
:100C9000DF91CF911F9108951132B9F747E050E0ED
:100CA0006BE071E080E00E940C0681E0F1CF13322E
:100CB00031F01032A1F01232C9F081E0E9CF8B811E
:100CC0009A81892798278927B0E0A0E080930701BF
:100CD00090930801A0930901B0930A01EACF67E05D
:100CE00070E08BE091E00E947D05E5CF8A818093E2
:100CF00012010E941C01811116C0E0E0F8E0809111
:100D00000B0190910C01A0910D01B0910E01803B5F
:100D10009440A105B10551F08081918187379747B3
:100D200051F181E0B5CFEEEFFAE0E9CF8091120109
:100D300080FDF2CFEE3F8AE0F80749F08081918193
:100D40008737980721F09093FF0A8093FE0A87E780
:100D500097E791838083809160008093620188E1AE
:100D60009BE00FB6F894A895809360000FBE909317
:100D7000600081E08DCFA895A0E6B0E08C918861FD
:100D80008C93809162018C93EE3F8AE0F80741F0EA
:100D90008091FE0A9091FF0A9183808381E078CF51
:100DA0001182108281E074CFFC0190819E5F90835C
:100DB00042E450E061E671E080E80E940C0608958C
:100DC0001092E9001092520110925101909350013B
:100DD00080934F01089581E08730A8F4282F30E0F8
:100DE000F901E050FF4F9081992369F08093E90069
:100DF00091E09093EB0090819093EC0096E39093B8
:100E0000ED008F5FE9CFEAEEF0E08EE7808310829D
:100E100008958093E90081E08093EB006093EC00FB
:100E20004093ED000895CF93DF931F92CDB7DEB7C7
:100E30009FB79983F89487708093E9009091E800B8
:100E4000892F807295FF04C09091F20080E4891B85
:100E500099819FBF0F90DF91CF91089583E00E9409
:100E6000130790E008959F92AF92BF92CF92DF92C6
:100E7000EF92FF920F931F93CF93DF931F92CDB703
:100E8000DEB7D82E8B01942EA52E80915701882392
:100E900009F491C08091550180FF05C0E0EEF0E0BB
:100EA000808182608083E92CFA2CB12C0F2EFAEF1E
:100EB000CF2EF02D43C08E151F0411F00CF08E2D97
:100EC0002FB72983F8942D2D27702093E9002091C6
:100ED000E80025FF12C0E81AF108D5FC11C0DD209A
:100EE000BCF02FEF280F882309F1F80130813093EF
:100EF000F100822F0F5F1F4FF4CF89818FBF1EC07B
:100F00002FEF280F882391F01092F100822FF8CF55
:100F10009FEF980F882351F098012F5F3F4FF80102
:100F200004910093F100892F8901F2CFBB20D1F009
:100F30008AE38093E800B12C89818FBFE114F1042A
:100F400011F4BB2029F18D2D0E9413078111B3CF1D
:100F5000CA94CC2099F161E070E080E090E00E94BA
:100F60003B04ECCF8091E80085FD09C08AE38093C3
:100F7000E800E114F10401F7BB24B394DDCFE114E0
:100F8000F104D1F6D6FED8CF8AE38093E800D4CF1F
:100F90005D9A84E680935401892D9A2D0F90DF91FC
:100FA000CF911F910F91FF90EF90DF90CF90BF9066
:100FB000AF909F9008958FEF9FEFF0CF8FEF9FEF4F
:100FC000EDCFCF93DF932091120121110AC021E0D0
:100FD00030E0FC013383228380E090E0DF91CF9109
:100FE0000895EC0183E00E94330718161906B4F344
:100FF00081E090E09B838A8380E090E0EFCFCF9305
:10100000DF931F92CDB7DEB7FB0190915701992373
:1010100079F1552384F19FB79983F8948770809371
:10102000E9006091F20070E0461757070CF4BA012E
:10103000962F2FEF290F992351F0289A94E6909339
:1010400053019091F1009083922F3196F2CF611568
:10105000710539F08091F200811103C08BE6809315
:10106000E80089818FBFCB010F90DF91CF91089568
:101070006FEF7FEFF8CF6FEF7FEFF5CFCF93DF9379
:101080001F92CDB7DEB741E050E0BE016F5F7F4FEA
:101090000E94FF07019731F4898190E00F90DF9162
:1010A000CF9108958FEF9FEFF9CFFC01848595854F
:1010B00099232CF02FEF3FEF35872487089582E0A6
:1010C0000E943E080895CF93DF93EC018C859D85A7
:1010D00099232CF08C859D85DF91CF91089582E036
:1010E0000E943E089D878C87F5CFCF93DF931F9298
:1010F000CDB7DEB79FB79983F89487708093E900E6
:101100008091F20099819FBF0F90DF91CF91089558
:10111000FC0184859585992334F082E00E9475084E
:1011200090E00196089582E00E94750890E008958D
:10113000FC0182E0808384E081831382128208951F
:1011400080914701882319F083E491E0089583E4B6
:1011500091E00E94980881E080934701F5CFCF93FA
:10116000DF93EC018981FB019481890F9927991FF5
:1011700008975CF5EA81FB81309721F47B836A83D1
:1011800007C0FC01808591850097D9F7718760873A
:101190008881FB0182838981838395818881890F7E
:1011A000888320E0FB018481281788F4A681B78119
:1011B0009981E92FF0E0A20FB11D8C91E050FF4F13
:1011C00080839F5F99832F5FEDCF80E001C081E036
:1011D000DF91CF9108950F931F93CF93DF938B01EE
:1011E000FC01C281D381209771F0E881F9810190DF
:1011F000F081E02DB801CE010995811105C0088468
:10120000D985C02DF0CF80E0DF91CF911F910F9154
:101210000895CF93DF93EC018C81882341F00E94E5
:10122000A008BE010E94EB08DF91CF910895CE0186
:101230000E943D06F9CF0F931F93CF93DF938B014D
:10124000FC01C281D381209771F0E881F981068089
:10125000F781E02DB801CE010995080F111D088412
:10126000D985C02DF0CFF8011082DF91CF911F9169
:101270000F9108950F931F93CF93DF938B01FC0180
:10128000C281D381209771F0E881F9810480F581D2
:10129000E02DB801CE010995009731F40884D98575
:1012A000C02DF0CF90E080E0DF91CF911F910F91A2
:1012B0000895EF92FF920F931F93CF93DF937B01DB
:1012C000FC01C281D38110E000E0209791F0E88119
:1012D000F9810280F381E02DB701CE0109959923B0
:1012E00034F0080F191F0884D985C02DEECF0FEFF9
:1012F0001FEFC801DF91CF911F910F91FF90EF90E9
:101300000895CF93DF931F92CDB7DEB71982CE0138
:1013100001960E94D4060E94A008BE016F5F7F4F15
:101320000E94590989810F90DF91CF9108950F9301
:101330001F93CF93DF93CDB7DEB729970FB6F894FD
:10134000DEBF0FBECDBF8C0190E080E00E94E006C2
:101350000E9481091F8299E0998392E09A8391E02B
:101360009E8390EA98879AEF998720915101309156
:101370005201275F3F4F3C832B838D83C8010E941E
:10138000E00649E050E0BE016F5F7F4F80E00E94C1
:101390000C060E94810981E029960FB6F894DEBF01
:1013A0000FBECDBFDF91CF911F910F910895DC014A
:1013B000FB0112962C9112978481958128171906AA
:1013C00041F491818081813A31F49D7F81E09130B7
:1013D00009F080E008958132E1F79B3029F48281A1
:1013E0001F968C9381E008959A3099F782815096E8
:1013F0008C93F8CFDC01FB0188E4808389E481834E
:1014000084E482831D969C911D979F709F5B9383BC
:101410001D968D919C9124E0969587952A95E1F7EC
:101420008F708F5B848385E00895EF92FF920F9316
:101430001F93CF93DF93FB012081213889F523810E
:10144000223271F5DC0112964C91248135814217CC
:10145000130631F58C01FC01C385D485F12CE12CF8
:10146000209791F04C815D816A817B818E81811111
:1014700080E80E940C068F3F980759F0E80EF91E8D
:101480000990D881C02DECCF81E0D8011F968C93B4
:10149000C701DF91CF911F910F91FF90EF900895B9
:1014A00090E080E0F6CFCF93DF93CDB7DEB76997BA
:1014B0000FB6F894DEBF0FBECDBFFC01DB018C91EF
:1014C0008F5F8C939E012D5F3F4F8DE0D9011D9260
:1014D0008A95E9F729E0298384E08A8391E09D8356
:1014E00083E08E832A8721E22B879C879D879F87B5
:1014F00022E2288B27E02B8B25E02C8B8E8B20E49F
:1015000030E0388F2F8B998F82818B8395858685EC
:10151000998B8A8B838180688D8B49E150E0BE0175
:101520006F5F7F4F80E00E940C0669960FB6F894BB
:10153000DEBF0FBECDBFDF91CF910895CF938091D5
:101540003B0181112CC0C1E0C0932E01C0932F013B
:1015500084E391E090933101809330011092330144
:10156000109232018DE191E090932B0180932A013A
:101570001092360110923501109238011092370105
:10158000C0933901C0933A0181EC809334010E94E9
:10159000A0086AE271E00E94AF08C0933B018AE2B2
:1015A00091E0CF9108954F925F926F927F928F92C8
:1015B0009F92AF92BF92CF92DF92EF92FF920F93E2
:1015C0001F93CF93DF93CDB7DEB74DB65EB6809154
:1015D000F4012DB73EB7281B31090FB6F8943EBF72
:1015E0000FBE2DBF8DB79EB701963C01809097012D
:1015F000912C8091930190919401D301FC019F0162
:10160000281B390B281539051CF421912D93F7CF90
:1016100080919801882359F180918F0190919001D8
:1016200028E097FD09C068E671E00E94C0146DE2F1
:1016300070E00E94C014262F809191019091920138
:1016400068E097FD08C068E671E00E94C0146DE292
:1016500070E00E94C014F301E80DF91D90E1699F4C
:10166000B0011124262B2083F40131964F01530140
:10167000A80CB91CC0909F01D090A001E090A101DE
:10168000F090A20100919B0110919C0120919D017D
:1016900030919E0140916301509164016091650118
:1016A000709166018091990181700E94B504880E45
:1016B000991E5301A80CB91CC090A701D090A80195
:1016C000E090A901F090AA010091A3011091A4015A
:1016D0002091A5013091A6014091670150916801C8
:1016E0006091690170916A0180919901869581707C
:1016F0000E94B504880E991E5301A80CB91CC09015
:10170000AF01D090B001E090B101F090B201009132
:10171000AB011091AC012091AD013091AE0140912F
:101720006B0150916C0160916D0170916E0180911F
:10173000990182FB882780F90E94B504880E991EC2
:101740005301A80CB91CC090B701D090B801E0902B
:10175000B901F090BA010091B3011091B401209148
:10176000B5013091B60140916F01509170016091C7
:101770007101709172018091990183FB882780F932
:101780000E94B504880E991E5301A80CB91CC09084
:10179000BF01D090C001E090C101F090C201009162
:1017A000BB011091BC012091BD013091BE0140915F
:1017B000730150917401609175017091760180916F
:1017C0009901829581700E94B504880E991E53017B
:1017D000A80CB91CC090C701D090C801E090C90105
:1017E000F090CA010091C3011091C4012091C5017C
:1017F0003091C60140917701509178016091790153
:1018000070917A018091990185FB882780F90E9467
:10181000B504880E991E5301A80CB91CC090CF01C5
:10182000D090D001E090D101F090D2010091CB0195
:101830001091CC012091CD013091CE0140917F01DA
:1018400050918001609181017091820180919A0193
:1018500081700E94B504880E991E5301A80CB91C12
:10186000C090D701D090D801E090D901F090DA0172
:101870000091D3011091D4012091D5013091D6016E
:1018800040917B0150917C0160917D0170917E01BE
:1018900080919A01869581700E94B504880E991EE8
:1018A0005301A80CB91CC090DF01D090E001E0907A
:1018B000E101F090E2010091DB011091DC01209147
:1018C000DD013091DE0140918301509184016091EE
:1018D00085017091860180919A0182FB882780F9A9
:1018E0000E94B504880E991E5301A80CB91CC09023
:1018F000E701D090E801E090E901F090EA01009161
:10190000E3011091E4012091E5013091E60140915D
:101910008701509188016091890170918A018091BD
:101920009A0183FB882780F90E94B504880D991DD0
:101930005301A80EB91EC090EF01D090F001E090C5
:10194000F101F090F2010091EB011091EC01209176
:10195000ED013091EE0140918B0150918C0160912D
:101960008D0170918E0180919A01829581700E9403
:10197000B5040E949E0A4C014091F4018091F3014C
:1019800050E05A01FFEFAF1ABF0A2DB73EB72A1930
:101990003B090FB6F8943EBF0FBE2DBF0DB71EB763
:1019A0000F5F1F4FEDB7FEB78183B301C8010196EA
:1019B0000E941316F4018381A501B80180640E947E
:1019C00033070FB6F8945EBE0FBE4DBEDF91CF91C8
:1019D0001F910F91FF90EF90DF90CF90BF90AF904D
:1019E0009F908F907F906F905F904F9008950F938E
:1019F0001F93CF93DF930E94130200911202109164
:101A000013028091280190912901E801C81BD90B8C
:101A1000C13021E0D20724F0CC27DD27C81BD90B29
:101A2000C1152FEFD20714F4C80FD91F80912601DA
:101A300090912701C80FD91FC13080E2D80714F058
:101A4000C0E0D0E2D7FF02C0D0E0C0E0CE010D2E52
:101A5000000CAA0BBB0B8093730190937401A093AD
:101A60007501B09376018091950181110E94D30A8E
:101A7000D0932701C09326011093290100932801D8
:101A800062E370E080E090E0DF91CF911F910F91D1
:101A90000C943B04AF92BF92CF92DF92EF92FF92F1
:101AA0000F931F93CF9380E090E19093F801809380
:101AB000F701C1E0C093FD01C093020280E090E015
:101AC000A0E0BEE38093F9019093FA01A093FB019B
:101AD000B093FC0180E090E0A0E8BFE38093FE01BA
:101AE0009093FF01A0930002B09301020E941302A1
:101AF0006091120270911302709329016093280182
:101B0000072E000C880B990B1F921F9220E22F9337
:101B10001F92A12CB12C6501E12C14E0F12E00E004
:101B200010E020E030E0A9010E9474040F900F90B3
:101B30000F900F906B017093270160932601C09363
:101B400095010E94D30A1092BB011092BC01109221
:101B5000BD011092BE0180E090E2A0E0B0E0809371
:101B6000BF019093C001A093C101B093C2010D2C9D
:101B7000000CEE08FF08C0927301D0927401E0924D
:101B80007501F092760180919501882359F0CF91EB
:101B90001F910F91FF90EF90DF90CF90BF90AF908B
:101BA0000C94D30ACF911F910F91FF90EF90DF908B
:101BB000CF90BF90AF9008950E94EE1408950E94B8
:101BC000EE140895FF920F931F93CF93DF93CDB739
:101BD000DEB764970FB6F894DEBF0FBECDBF8C01A1
:101BE000FC01F380F2E0FF16B1F0FC0186819781E1
:101BF0000E94E0060E94A008B8010E943A099C01D8
:101C0000892BD1F4F1E0FF1609F44BC083E0F816FC
:101C1000C9F080E005C0FC01868197810E94970988
:101C200064960FB6F894DEBF0FBECDBFDF91CF91A3
:101C30001F910F91FF90089581E01216130684F30F
:101C400080E0EECFF80182818823C1F1823031F04B
:101C5000813059F0833081F080E0E2CF40E86DE0E0
:101C60008EEC90E00E94DB05DBCF40E86BE082EC7D
:101C700090E00E94DB05D4CF0E94A0088E010F5F88
:101C80001F4FB8010E941B09F80101900020E9F7DD
:101C90003197BF01601B710B40E0C8010E94DB055A
:101CA000BFCF60EB70E06115710559F0FB01449105
:101CB00050E080E80E940C0681E0B2CF6CEA70E050
:101CC000F2CF80E0ADCF1F920F920FB60F9211248A
:101CD0000F931F932F933F934F935F936F937F9334
:101CE0008F939F93AF93BF9300915A0110915B0123
:101CF00020915C0130915D0190915901B901A801D9
:101D00004F5F5F4F6F4F7F4F83E0890F8D3740F0FC
:101D100086E8890FB901A8014E5F5F4F6F4F7F4F73
:101D20008093590140935A0150935B0160935C0189
:101D300070935D0180915E0190915F01A0916001BF
:101D4000B09161010196A11DB11D80935E01909338
:101D50005F01A0936001B0936101BF91AF919F912A
:101D60008F917F916F915F914F913F912F911F9133
:101D70000F910F900FBE0F901F9018950E94BF03F8
:101D800088E591E00E943A050E944A0D0E94F70CF6
:101D900080E090E0892BD1F30E940000F7CF1F92E2
:101DA0000F920FB60F9211242F933F934F935F938F
:101DB0006F937F938F939F93AF93BF93CF93EF9343
:101DC000FF93E1EEF0E0C0818081837F8083C3FDDB
:101DD00018C0C2FD21C0C4FD3BC0C0FF4AC0E2EE36
:101DE000F0E080818E7E80618083E1EEF0E0808192
:101DF0008E7E8083809155018E7E81608093550117
:101E000038C042E360E080E00E9409071092570169
:101E100088E08093F000DDCF83E00E946F05809121
:101E20005401882341F080915401815080935401E2
:101E3000811101C05D9880915301882361F28091E6
:101E400053018150809353018111C5CF2898C3CF8E
:101E5000E2EEF0E080818E7E81608083E1EEF0E052
:101E600080818F7E8083809155018E7E80618093FA
:101E70005501FF91EF91CF91BF91AF919F918F91BC
:101E80007F916F915F914F913F912F910F900FBE76
:101E90000F901F9018951F920F920FB60F9211245A
:101EA0002F933F934F935F936F937F938F939F9362
:101EB000AF93BF93EF93FF93CF93DF93CDB7DEB78D
:101EC0002897DEBFCDBF1092E9008091E80083FF24
:101ED0002EC088E0FE0131969FEF980F882331F0E5
:101EE0008091F1008083892F3196F6CF289A84E67D
:101EF0008093530182EF8093E8009981992384F1C4
:101F00008EEF8093E800892F807609F075C08A8172
:101F10004B812C81322F242F81112EC0903829F132
:101F2000E1EFF0E0108210828EEF8093E8002896B7
:101F30000FB6F894DEBF0FBECDBFDF91CF91FF91FA
:101F4000EF91BF91AF919F918F917F916F915F9131
:101F50004F913F912F910F900FBE0F901F901895AA
:101F60008091E80080FFFCCFCECF80915601E1EF59
:101F7000F0E080831082D8CF8130A9F08330F9F06F
:101F8000853049F1863079F1873009F43FC08830D7
:101F900079F1893049F69370C9F50E94EB068B817F
:101FA00080935701C1CF9111BFCF2130310509F086
:101FB000BBCF809156018D7F80935601B5CF911193
:101FC000B3CF2130310509F0AFCF80915601826047
:101FD00080935601A9CF8091E80080FFFCCF406834
:101FE0004093E300A1CFCE0101960E94E20D0CC008
:101FF00081E08093F10098CF8F8198850E94E00660
:10200000CE0101960E94090981118ECF81E2809351
:10201000EB008DCFEF92FF920F931F93CF93DF933F
:10202000CDB7DEB7C659D1090FB6F894DEBF0FBEE3
:10203000CDBF1092940110929301109297011092CB
:102040009B0110929C0110929D0110929E018FEFB6
:1020500093E0A0E0B0E080939F019093A001A09353
:10206000A101B093A2011092A3011092A4011092B9
:10207000A5011092A6018093A7019093A801A093B7
:10208000A901B093AA011092AB011092AC01109279
:10209000AD011092AE018093AF019093B001A09377
:1020A000B101B093B2011092B3011092B401109239
:1020B000B5011092B6018093B7019093B801A09337
:1020C000B901B093BA011092BB011092BC011092F9
:1020D000BD011092BE018093BF019093C001A093F7
:1020E000C101B093C2011092C3011092C4011092B9
:1020F000C5011092C6018093C7019093C801A093B7
:10210000C901B093CA011092CB011092CC01109278
:10211000CD011092CE018093CF019093D001A09376
:10212000D101B093D2011092D3011092D401109238
:10213000D5011092D6018093D7019093D801A09336
:10214000D901B093DA011092DB011092DC011092F8
:10215000DD011092DE018093DF019093E001A093F6
:10216000E101B093E2011092E3011092E4011092B8
:10217000E5011092E6018093E7019093E801A093B6
:10218000E901B093EA011092EB011092EC01109278
:10219000ED011092EE018093EF019093F001A09376
:1021A000F101B093F20153E05093F30110929601C4
:1021B0001092980140E14093990110929A0125E014
:1021C000298381E08A8399E09B832C8331EA3D83D4
:1021D0008E8365E86F83588729878A879B878C87DA
:1021E00025E12D871E8627E22F872FEF288B298B4D
:1021F0001A8A1B8A25E72C8B4D8B25E92E8B8F8B1A
:10220000388F198E9A8F84E38B8F81E88C8F82E0D0
:102210008D8F80EC8E8F8F8F8FE190E00E94DC0D90
:102220007C018FE1FE013196D70101900D928A95D4
:10223000E1F787E090E00E94DF0D8C01DC01119650
:102240001C921E921396FC92EE9212978FE190E0F0
:1022500015969C938E93149716961C920E949E0A34
:10226000FC01A385B485109709F08CC014870387FF
:1022700085859685D80114962D913C91820F931FE8
:1022800096878587809197018E5F91E020919801D4
:10229000211101C090E0890F8093F4011092630135
:1022A000109264011092650110926601109267010C
:1022B000109268011092690110926A0110926B01EC
:1022C00010926C0110926D0110926E0110926F01CC
:1022D00010927001109271011092720110927301AC
:1022E000109274011092750110927601109277018C
:1022F000109278011092790110927A0110927B016C
:1023000010927C0110927D0110927E0110927F014B
:10231000109280011092810110928201109283012B
:10232000109284011092850110928601109287010B
:10233000109288011092890110928A0110928B01EB
:1023400010928C0110928D0110928E018FEF9FEFF1
:102350009093900180938F019093920180939101CB
:1023600090E080E0209197012817190699F094F0E9
:10237000E0919301F0919401E80FF91F108201960A
:10238000F1CFDC018D919C9111970097D1F70D93BE
:102390001C936ECF80E094E09093F8018093F70156
:1023A00080E090E0A0E8B0E48093FE019093FF010C
:1023B000A0930002B093010281E080930202109288
:1023C0000B0210920C0210920D0210920E0210924B
:1023D0000F0260E08CE10E94B00160E08CE10E949D
:1023E0007D018CE190E09093F6018093F5011092CD
:1023F000FD018AE097EDA3E2BCE38093F90190939D
:10240000FA01A093FB01B093FC01CA56DF4F0FB64F
:10241000F894DEBF0FBECDBFDF91CF911F910F911A
:10242000FF90EF9008950E94FE000C940A10052E74
:1024300097FB1EF400940E942E1257FD07D00E94B5
:10244000411207FC03D04EF40C942E125095409587
:10245000309521953F4F4F4F5F4F08959095809550
:10246000709561957F4F8F4F9F4F08950E94631223
:10247000A59F900DB49F900DA49F800D911D1124D8
:102480000895A1E21A2EAA1BBB1BFD010DC0AA1FB5
:10249000BB1FEE1FFF1FA217B307E407F50720F0CD
:1024A000A21BB30BE40BF50B661F771F881F991F48
:1024B0001A9469F760957095809590959B01AC0191
:1024C000BD01CF010895A29FB001B39FC001A39F9A
:1024D000700D811D1124911DB29F700D811D11245D
:1024E000911D08955058BB27AA270E948A120C9468
:1024F00004140E94F61338F00E94FD1320F039F402
:102500009F3F19F426F40C94F3130EF4E095E7FBC7
:102510000C94ED13E92F0E94151458F3BA176207B3
:1025200073078407950720F079F4A6F50C94371407
:102530000EF4E0950B2EBA2FA02D0B01B9019001DE
:102540000C01CA01A0011124FF27591B99F0593F22
:1025500050F4503E68F11A16F040A22F232F342F6A
:102560004427585FF3CF469537952795A795F040B8
:102570005395C9F77EF41F16BA0B620B730B840BCD
:10258000BAF09150A1F0FF0FBB1F661F771F881F85
:10259000C2F70EC0BA0F621F731F841F48F48795DD
:1025A00077956795B795F7959E3F08F0B0CF9395CF
:1025B000880F08F09927EE0F9795879508950E9448
:1025C000C91308F481E008950E94F8120C940414D1
:1025D0000E94FD1358F00E94F61340F029F45F3F6B
:1025E00029F00C94ED1351110C9438140C94F3133E
:1025F0000E94151468F39923B1F3552391F3951BA9
:10260000550BBB27AA2762177307840738F09F5F13
:102610005F4F220F331F441FAA1FA9F335D00E2E80
:102620003AF0E0E832D091505040E695001CCAF7ED
:102630002BD0FE2F29D0660F771F881FBB1F2617B0
:1026400037074807AB07B0E809F0BB0B802DBF0187
:10265000FF2793585F4F3AF09E3F510578F00C9456
:10266000ED130C9438145F3FE4F3983ED4F3869551
:1026700077956795B795F7959F5FC9F7880F911D77
:102680009695879597F90895E1E0660F771F881F63
:10269000BB1F621773078407BA0720F0621B730B16
:1026A000840BBA0BEE1F88F7E09508950E945D1326
:1026B0006894B1110C94381408950E941D1488F088
:1026C0009F5798F0B92F9927B751B0F0E1F0660FF6
:1026D000771F881F991F1AF0BA95C9F714C0B13037
:1026E00091F00E943714B1E008950C943714672FCD
:1026F000782F8827B85F39F0B93FCCF38695779566
:102700006795B395D9F73EF490958095709561954E
:102710007F4F8F4F9F4F0895E89409C097FB3EF479
:1027200090958095709561957F4F8F4F9F4F99231E
:10273000A9F0F92F96E9BB279395F695879577959C
:102740006795B795F111F8CFFAF4BB0F11F460FF5C
:102750001BC06F5F7F4F8F4F9F4F16C0882311F0B4
:1027600096E911C0772321F09EE8872F762F05C0C8
:10277000662371F096E8862F70E060E02AF09A9563
:10278000660F771F881FDAF7880F9695879597F958
:102790000895990F0008550FAA0BE0E8FEEF1616F2
:1027A0001706E807F907C0F012161306E407F50745
:1027B00098F0621B730B840B950B39F40A2661F0B9
:1027C000232B242B252B21F408950A2609F4A1405C
:1027D000A6958FEF811D811D089597F99F6780E869
:1027E00070E060E008959FEF80EC089500240A9463
:1027F0001616170618060906089500240A941216DC
:102800001306140605060895092E0394000C11F40E
:10281000882352F0BB0F40F4BF2B11F460FF04C0BB
:102820006F5F7F4F8F4F9F4F089557FD9058440F14
:10283000551F59F05F3F71F04795880F97FB991F1F
:1028400061F09F3F79F087950895121613061406DC
:10285000551FF2CF4695F1DF08C016161706180669
:10286000991FF1CF86957105610508940895E89444
:10287000BB2766277727CB0197F908950E94C913D4
:1028800008F48FEF08950E9456140C9404140E94CB
:10289000F61338F00E94FD1320F0952311F00C94EC
:1028A000ED130C94F31311240C9438140E94151496
:1028B00070F3959FC1F3950F50E0551F629FF00193
:1028C000729FBB27F00DB11D639FAA27F00DB11DAC
:1028D000AA1F649F6627B00DA11D661F829F222735
:1028E000B00DA11D621F739FB00DA11D621F839FBC
:1028F000A00D611D221F749F3327A00D611D231F92
:10290000849F600D211D822F762F6A2F11249F57DF
:1029100050409AF0F1F088234AF0EE0FFF1FBB1FE2
:10292000661F771F881F91505040A9F79E3F5105A1
:1029300080F00C94ED130C9438145F3FE4F3983E50
:10294000D4F3869577956795B795F795E7959F5F4B
:10295000C1F7FE2B880F911D9695879597F90895DD
:10296000DB018F939F930E943612BF91AF91A29F7C
:10297000800D911DA39F900DB29F900D112408957D
:1029800097FB072E16F4009407D077FD09D00E941C
:10299000DA1407FC05D03EF4909581959F4F089579
:1029A000709561957F4F0895EE0FFF1F0590F4918C
:1029B000E02D0994AA1BBB1B51E107C0AA1FBB1F36
:1029C000A617B70710F0A61BB70B881F991F5A95BB
:1029D000A9F780959095BC01CD0108950F931F93A1
:1029E000CF93DF938230910510F482E090E0E09184
:1029F0001902F0911A0230E020E0B0E0A0E0309738
:102A000099F42115310509F44AC0281B390B2430EB
:102A10003105D8F58A819B816115710589F1FB012A
:102A200093838283FE0111C0408151810281138111
:102A300048175907E0F04817590799F4109761F0C3
:102A400012960C93129713961C933296CF01DF9136
:102A5000CF911F910F9108950093190210931A02BC
:102A6000F4CF2115310551F04217530738F0A90171
:102A7000DB019A01BD01DF01F801C1CFEF01F9CF00
:102A800090931A0280931902CDCFFE01E20FF31F3B
:102A9000819391932250310939832883D7CF209194
:102AA000170230911802232B41F420911501309127
:102AB00016013093180220931702209113013091D0
:102AC00014012115310541F42DB73EB7409117018E
:102AD00050911801241B350BE0911702F091180258
:102AE000E217F307A0F42E1B3F0B2817390778F0E5
:102AF000AC014E5F5F4F2417350748F04E0F5F1F44
:102B00005093180240931702819391939FCFF0E066
:102B1000E0E09CCFCF93DF930097E9F0FC01329780
:102B200013821282A0911902B0911A02ED0130E0D5
:102B300020E01097A1F420813181820F931F209112
:102B40001702309118022817390709F061C0F09375
:102B50001802E0931702DF91CF910895EA01CE1792
:102B6000DF07E8F54A815B819E0141155105B1F708
:102B7000E901FB83EA8349915991C40FD51FEC17F2
:102B8000FD0761F4808191810296840F951FE90110
:102B900099838883828193819B838A83F0E0E0E03C
:102BA00012968D919C9113970097B9F52D913C91B8
:102BB0001197CD010296820F931F20911702309139
:102BC00018022817390739F6309751F510921A0272
:102BD00010921902B0931802A0931702BCCFD383AE
:102BE000C28340815181840F951FC817D90761F4B2
:102BF0004E5F5F4F88819981480F591F51834083F1
:102C00008A819B81938382832115310509F0B0CF9E
:102C1000F0931A02E09319029ECFFD01DC01C0CFB0
:102C200013821282D7CFFB01DC0102C001900D920A
:0C2C300041505040D8F70895F894FFCFB1
:102C3C0000C18081000000FFFFFFFF00E1000000E9
:102C4C0000000000001B02800000000000D70953A8
:062C5C000A150AFA090046
:00000001FF
