:100000000C94D3000C94FB000C94FB000C94FB00AC
:100010000C94FB000C94FB000C94FB000C94FB0074
:100020000C94FB000C94FB000C9462090C94D10915
:100030000C94FB000C94FB000C94FB000C94FB0054
:100040000C94FB000C94FB000C94FB000C94FB0044
:100050000C94FB000C94FB000C94FB000C9418090E
:100060000C94FB000C94FB000C94FB000C94FB0024
:100070000C94FB000C94FB000C94FB000C94FB0014
:100080000C94FB000C94FB000C94FB000C94FB0004
:100090000C94FB000C94FB000C94FB000C94FB00F4
:1000A0000C94FB000C94FB000C94FB00080B00026A
:1000B0000202000009040000010202000005240001
:1000C0001001052401010104240206052406000193
:1000D0000705810310004009040100020A00000026
:1000E00007050202400000070583024000000403E8
:1000F000090412010002EF0201404F1B04920001AB
:1001000001020301537061726B46756E005370619A
:10011000726B46756E2050726F204D6963726F006E
:10012000070605040100080A0B0C0D090000000277
:1001300000090F0000030401000C00000000000093
:10014000000000000000000000000000000025008A
:1001500028002B002E0031000000000024002700A2
:100160002A002D00300004040404040304050202E4
:100170000202040302020202060606060606040440
:1001800002020204040408020110408040102040D2
:10019000804080080204018040201002011080107D
:1001A00020404020030C11241FBECFEFDAE0DEBF59
:1001B000CDBF11E0A0E0B1E0E0E6F8E202C00590BA
:1001C0000D92A833B107D9F722E0A8E3B1E001C04E
:1001D0001D92AC37B207E1F710E0C3EDD0E004C0E8
:1001E0002197FE010E94E612C23DD107C9F70E9485
:1001F000A80E0C942E140C9400004F925F926F92F4
:100200007F928F929F92AF92BF92CF92DF92EF92A6
:10021000FF921F93CF93DF9300D000D000D0CDB7D3
:10022000DEB79A8389831091CC01112389F18091E3
:10023000D101882369F129813A81B901330F880BF3
:10024000990B0E94B0112B013C01C090CD01D090C0
:10025000CE01E090CF01F090D001AC019B01C7012D
:10026000B6010E94601218160CF0A4C069817A8150
:10027000660F771F072E000C880B990B0E94B01198
:10028000A70196010E9494100E9478117A836983D5
:100290004090D2015090D3016090D4017090D5016C
:1002A000A981BA81BD01BB0F880B990B0E94B011C7
:1002B000A30192010E9494104B015C0120E030E008
:1002C000A9010E94601218160CF09AC0C501B40171
:1002D0000E947F117E836D83C090DA01D090DB0194
:1002E000E090DC01F090DD01A7019601C501B401A9
:1002F0000E9494102DEC3CEC4CEC5EE30E946512E5
:10030000A70196010E9495106B017C01C092DA0151
:10031000D092DB01E092DC01F092DD01112309F4BF
:1003200073C020E030E0A9010E946012181624F08A
:10033000F7FAF094F7F8F0948091CD019091CE0106
:10034000A091CF01B091D00189839A83AB83BC8304
:1003500011E0A7019601BC01CD010E9460121816A0
:100360000CF010E01093DE01A701960169817A81FB
:100370008B819C810E94601218160CF045C0C3014D
:10038000B2010E947811CB0126960FB6F894DEBF19
:100390000FBECDBFDF91CF911F91FF90EF90DF9007
:1003A000CF90BF90AF909F908F907F906F905F9015
:1003B0004F900895A090C601B090C701B5010B2CD5
:1003C000000C880B990B0E94B011A70196010E94A6
:1003D0009410A30192010E94011187FF59CF6981F6
:1003E0007A81660F771F6A197B09072E000C880B2C
:1003F000990B0E94B011A70196010E94951044CF5D
:10040000C501B401905864CFAD81BE81BD0190E0BB
:1004100080E00E94AE112091C8013091C901409145
:10042000CA015091CB010E94651220E030E040E803
:100430005FE30E9495109B01AC0160E070E080E8F2
:100440009FE30E9406119B01AC0160E070E080E830
:100450009FE30E9494109B01AC010E9495106B01D8
:100460007C0120E030E040E85FE30E946012181653
:1004700034F4C12CD12C80E8E82E8FE3F82EA701AC
:100480009601C501B4010E946512A30192010E9468
:1004900095106B017C01C092D201D092D301E09201
:1004A000D401F092D50120E030E0A9010E940111B1
:1004B00087FF11C01092D2011092D3011092D40183
:1004C0001092D5016091D2017091D3018091D40135
:1004D0009091D50156CF6091C6017091C7016150CE
:1004E0007109072E000C880B990B0E94B0114B016B
:1004F0005C01AC019B01C701B6010E946012181695
:100500000CF78092D2019092D301A092D401B092C4
:10051000D501D8CF4F925F926F927F928F929F9228
:10052000AF92BF92CF92DF92EF92FF920F931F9301
:10053000CF93DF93E5010C151D052E053F050CF04B
:1005400051C02801390146015701882309F44FC0E1
:10055000CA01DB0184159505A605B70514F4D3017E
:10056000C201B501A40188159905AA05BB0514F4BB
:10057000AC01BD01C016D106E206F30664F4D50154
:10058000C401841B950BA60BB70BAC01BD01440D38
:10059000551D661D771D9A01AB01241935094609C1
:1005A0005709AFEFBFEF0E945810A501940124191D
:1005B0003509460957090E9439102883398382E09A
:1005C00090E0DF91CF911F910F91FF90EF90DF901E
:1005D000CF90BF90AF909F908F907F906F905F90E3
:1005E0004F9008952601370148015901AECF90E0A0
:1005F00080E0E7CFFC0180917301882311F13FB7C0
:10060000F89482E08093E9002091F200822F90E03C
:100610001816190614F481E090E0882339F0289820
:1006200044E6409372014091F1004083222339F067
:100630002091F200211103C02BE62093E8003FBF78
:1006400008958FEF9FEF0895CF93DF931F92CDB75B
:10065000DEB76983DC01ED91FC910280F381E02D2E
:1006600041E050E0BE016F5F7F4F09950F90DF9131
:10067000CF91089583E08093E9008091F200882370
:1006800019F08AE38093E8000895CF93DF931F92D7
:10069000CDB7DEB7FC018485958597FD08C02FEFA7
:1006A0003FEF358724870F90DF91CF910895CE01DA
:1006B00001960E94FA02019719F4898190E0F3CF24
:1006C0008FEF9FEFF0CF0F931F93CF93DF931F9286
:1006D000CDB7DEB78C01FC018485958597FF0BC0F3
:1006E000CE0101960E94FA02019771F4898190E08F
:1006F000F80195878487F801848595850F90DF91AF
:10070000CF911F910F9108958FEF9FEFF1CFFC01D3
:100710008485958597FD0BC09FB7F89482E0809300
:10072000E9008091F2009FBF90E0019608959FB785
:10073000F89482E08093E9008091F2009FBF90E0FE
:100740000895823108F08251E82FF0E0E05EFE4F1C
:10075000E49190917B008E2F880F880F80729F7D8F
:10076000892B80937B00E770E064E0937C008091AC
:100770007A00806480937A0080917A0086FDFCCFB5
:10078000809178009091790008953FB7F894809116
:100790006E0190916F01A0917001B091710126B529
:1007A000A89B05C02F3F19F00196A11DB11D3FBFA9
:1007B000BA2FA92F982F8827BC01CD01620F711D78
:1007C000811D911D43E0660F771F881F991F4A9571
:1007D000D1F708958F929F92AF92BF92CF92DF92FE
:1007E000EF92FF924B015C010E94C5036B017C01FB
:1007F0000E94C5036C197D098E099F09683E7340EC
:1008000081059105A8F321E0821A9108A108B10899
:1008100088EEC80E83E0D81EE11CF11C81149104FF
:10082000A104B10429F7FF90EF90DF90CF90BF9023
:10083000AF909F908F90089540915F01509160011B
:1008400020915D0130915E0142175307B4F49091FD
:10085000E8009570E1F39091E80092FD19C0809353
:10086000F10080915F019091600101968F7399274B
:10087000892B19F48EEF8093E80080915F019091AD
:10088000600101969093600180935F0181E008957B
:1008900080E00895EF92FF920F931F93CF93DF9321
:1008A000F82E192FE62E042F81E0860F880F0E9464
:1008B0001C0483E00E941C04CF2DD12FEC0EFD2ED2
:1008C000F11CCE15DF05B9F007FF13C0FE018491BE
:1008D0000E941C04182F80E00E941C048123219692
:1008E0008111EFCFDF91CF911F910F91FF90EF908A
:1008F00008958881EDCF81E0F5CFDF92EF92FF92EE
:100900000F931F93CF93DF93D82E8A01EB017B01C6
:10091000E40EF51ECE15DF0559F0D7FE12C0FE011C
:1009200084910E941C0421968111F4CF0FEF1FEFD8
:10093000C801DF91CF911F910F91FF90EF90DF9051
:1009400008958881EECF2FB7F89487708093E900DF
:100950009091E800892F807295FF04C09091F20079
:1009600080E4891B2FBF089583E00E94A30490E0D8
:1009700008957F928F929F92AF92BF92CF92DF9213
:10098000EF92FF920F931F93CF93DF93C82E8B01AB
:100990007A0180917301811110C08FEF9FEFDF9179
:1009A000CF911F910F91FF90EF90DF90CF90BF906C
:1009B000AF909F908F907F9008958091630180FF0A
:1009C00005C08091E00082608093E000CE2DDF2D95
:1009D000D12C8AEFB82E8C2D8770982E8C2D80729A
:1009E000882E8C2D8074782E9AE3A92E209719F4E6
:1009F000DD2009F452C08C2D0E94A30481110AC08D
:100A0000BA94BB2051F261E070E080E090E00E9477
:100A1000EA03ECCF8C171D0611F00CF08C2F9FB75A
:100A2000F8949092E9002091E80025FD02C09FBF54
:100A3000DDCF282F30E0C21BD30B882029F0815056
:100A4000A0F01092F100FBCFF801C7FC0AC0815062
:100A500050F041914093F100FACF44914093F1005E
:100A600031968150D0F7020F131FDD2021F0A092A4
:100A7000E800D12CDCCF8091E80085FD07C0A09272
:100A8000E800DD24D394209791F2F3CF209779F6F4
:100A9000772069F2A092E800CACF5D9884E680933F
:100AA0006201C7017CCFCF93DF93EC0180911201EB
:100AB000882331F083E00E94B9041816190634F037
:100AC00081E090E09B838A8380E090E0DF91CF918A
:100AD0000895615030F02091F100FC0120830196CF
:100AE000F8CF289884E6809372010895809155018B
:100AF00081110DC082E08093510184E08093520106
:100B0000109254011092530181E08093550181E5C8
:100B100091E008950F931F93CF93DF931F92CDB76A
:100B2000DEB782E0898342E450E06CEA70E080E85E
:100B30000E947D040E947605DC0112960D911C91A5
:100B40000115110589F0D801ED91FC910280F38126
:100B5000E02DBE016F5F7F4FC801099597FD04C06E
:100B6000F80100851185ECCF89810F90DF91CF913D
:100B70001F910F910895DC01FB0112962C911297A1
:100B8000848195812817190641F491818081813AE9
:100B900031F49D7F81E0913009F080E00895813249
:100BA000E1F79B3029F482811F968C9381E00895B0
:100BB0009A3099F7828150968C93F8CFDC01FB0133
:100BC00088E4808389E4818384E482831D969C91F8
:100BD0001D979F709F5B93831D968D919C9124E040
:100BE000969587952A95E1F78F708F5B848385E0D2
:100BF0000895EF92FF920F931F93CF93DF93FB0122
:100C00002081213889F52381223271F5DC01129689
:100C10004C91248135814217130631F58C01FC017A
:100C2000C385D485F12CE12C209791F04C815D8116
:100C30006A817B818E81811180E80E947D048F3FD3
:100C4000980759F0E80EF91E0990D881C02DECCF15
:100C500081E0D8011F968C93C701DF91CF911F913E
:100C60000F91FF90EF90089590E080E0F6CFCF9342
:100C7000DF93CDB7DEB769970FB6F894DEBF0FBE2E
:100C8000CDBFFC01DB018C918F5F8C939E012D5FAA
:100C90003F4F8DE0D9011D928A95E9F729E029831C
:100CA00084E08A8391E09D8383E08E832A8721E21A
:100CB0002B879C879D879F8722E2288B27E02B8BA1
:100CC00025E02C8B8E8B20E430E0388F2F8B998F92
:100CD00082818B8395858685998B8A8B83818068B9
:100CE0008D8B49E150E0BE016F5F7F4F80E00E9435
:100CF0007D0469960FB6F894DEBF0FBECDBFDF91BD
:100D0000CF910895CF93DF9380914901811167C0FE
:100D100081E080933C0180933D0122E431E03093F7
:100D20003F0120933E0110924101109240012DE1BC
:100D300031E0309339012093380110924401109230
:100D40004301109246011092450180934701809320
:100D5000480181EC809342010E947605FC0181816B
:100D600090913C01482F490F5527551F4830510598
:100D70009CF5A281B381109709F528E331E0338314
:100D80002283208120933A0180933B0180913D0191
:100D9000820F808320913E01A22FB0913F018A2FC4
:100DA000821B8917C8F481813D91C82FD0E0C050C3
:100DB000DF4F38838F5F8183F2CFD90118962D9151
:100DC0003C91199721153105C1F728E331E01996B7
:100DD0003C932E931897D5CF81E08093490188E307
:100DE00091E0DF91CF9108954F925F926F927F9241
:100DF0008F929F92AF92BF92CF92DF92EF92FF922B
:100E00000F931F93CF93DF93CDB7DEB74DB65EB68A
:100E1000809177022DB73EB7281B31090FB6F894A1
:100E20003EBF0FBE2DBF8DB79EB701963C0180908F
:100E30001A02912C8091160290911702D301FC01A5
:100E40009F01281B390B281539051CF421912D937E
:100E5000F7CF80911B02882359F180911202909163
:100E6000130228E097FD09C068E671E00E94D212E3
:100E70006DE270E00E94D212262F809114029091B0
:100E8000150268E097FD08C068E671E00E94D21282
:100E90006DE270E00E94D212F301E80DF91D90E1BD
:100EA000699FB0011124262B2083F40131964F0154
:100EB0005301A80CB91CC0902202D0902302E090EC
:100EC0002402F090250200911E0210911F02209131
:100ED0002002309121024091E6015091E70160919A
:100EE000E8017091E90180911C0281700E948A02E0
:100EF000880E991E5301A80CB91CC0902A02D090EC
:100F00002B02E0902C02F0902D020091260210910D
:100F1000270220912802309129024091EA01509144
:100F2000EB016091EC017091ED0180911C028695BE
:100F300081700E948A02880E991E5301A80CB91C68
:100F4000C0903202D0903302E0903402F09035022B
:100F500000912E0210912F02209130023091310227
:100F60004091EE015091EF016091F0017091F1011B
:100F700080911C0282FB882780F90E948A02880ED9
:100F8000991E5301A80CB91CC0903A02D0903B02A4
:100F9000E0903C02F0903D02009136021091370241
:100FA00020913802309139024091F2015091F301C1
:100FB0006091F4017091F50180911C0283FB8827F8
:100FC00080F90E948A02880E991E5301A80CB91C50
:100FD000C0904202D0904302E0904402F09045025B
:100FE00000913E0210913F02209140023091410257
:100FF0004091F6015091F7016091F8017091F9016B
:1010000080911C02829581700E948A02880E991E2E
:101010005301A80CB91CC0904A02D0904B02E0903A
:101020004C02F0904D02009146021091470220912F
:101030004802309149024091FA015091FB016091C0
:10104000FC017091FD0180911C0285FB882780F9CD
:101050000E948A02880E991E5301A80CB91CC090E8
:101060005202D0905302E0905402F0905502009149
:101070004E0210914F022091500230915102409146
:101080000202509103026091040270910502809166
:101090001D0281700E948A02880E991E5301A80CBD
:1010A000B91CC0905A02D0905B02E0905C02F090B4
:1010B0005D02009156021091570220915802309122
:1010C00059024091FE015091FF0160910002709120
:1010D000010280911D02869581700E948A02880E0D
:1010E000991E5301A80CB91CC0906202D0906302F3
:1010F000E0906402F090650200915E0210915F0240
:1011000020916002309161024091060250910702E5
:10111000609108027091090280911D0282FB88276C
:1011200080F90E948A02880E991E5301A80CB91CEE
:10113000C0906A02D0906B02E0906C02F0906D0259
:101140000091660210916702209168023091690255
:1011500040910A0250910B0260910C0270910D02B5
:1011600080911D0283FB882780F90E948A02880DE6
:10117000991D5301A80EB91EC0907202D09073023F
:10118000E0907402F090750200916E0210916F026F
:10119000209170023091710240910E0250910F0225
:1011A000609110027091110280911D0282958170F0
:1011B0000E948A020E9482064C014091770280912F
:1011C000760250E05A01FFEFAF1ABF0A2DB73EB7C3
:1011D0002A193B090FB6F8943EBF0FBE2DBF0DB7BD
:1011E0001EB70F5F1F4FEDB7FEB78183B301C80174
:1011F00001960E942514F4018381A501B801806441
:101200000E94B9040FB6F8945EBE0FBE4DBEDF91CA
:10121000CF911F910F91FF90EF90DF90CF90BF90F3
:10122000AF909F908F907F906F905F904F900895B8
:101230001F920F920FB60F9211242F933F938F930B
:101240009F93AF93BF9380916A0190916B01A0919E
:101250006C01B0916D013091690126E0230F2D37AB
:1012600058F50296A11DB11D2093690180936A0172
:1012700090936B01A0936C01B0936D0180916E010E
:1012800090916F01A0917001B09171010196A11D23
:10129000B11D80936E0190936F01A0937001B09384
:1012A0007101BF91AF919F918F913F912F910F90BD
:1012B0000FBE0F901F90189529E8230F0396A11DCC
:1012C000B11DD2CF1F920F920FB60F9211248F93A0
:1012D0009F938091E1009091E100937F9093E100D2
:1012E00083FF0FC01092E90091E09093EB00109201
:1012F000EC0092E39093ED001092730198E09093CC
:10130000F00082FF22C093E09093E9009091F200F8
:10131000992319F09AE39093E80090916201992340
:1013200041F090916201915090936201911101C03E
:101330005D9A90917201992341F0909172019150C0
:1013400090937201911101C0289A84FF18C0809176
:10135000E2008E7E81608093E2008091E1008F7ECA
:101360008093E100809163018E7E806180936301B0
:101370009F918F910F900FBE0F901F90189580FF37
:10138000F7CF8091E2008E7E80618093E2008091B1
:10139000E1008E7E8093E100809163018E7E81600A
:1013A000E5CF1F920F920FB60F921124CF92DF92CA
:1013B000EF92FF920F931F932F933F934F935F935F
:1013C0006F937F938F939F93AF93BF93EF93FF930D
:1013D000CF93DF93CDB7DEB76C97DEBFCDBF109252
:1013E000E9008091E80083FF25C068E0CE014596C2
:1013F0000E94690582EF8093E8008D8987FF39C0DC
:101400009091E80090FFFCCF982F907609F034C1BE
:101410009E894F89588D2F89F88C911131C0803861
:1014200061F5809164018093F1001092F1008EEFDC
:101430008093E8006C960FB6F894DEBF0FBECDBF68
:10144000DF91CF91FF91EF91BF91AF919F918F91DC
:101450007F916F915F914F913F912F911F910F91CC
:10146000FF90EF90DF90CF900F900FBE0F901F90E6
:1014700018959EEF9093E800C7CF1092F100D5CF5A
:10148000913059F48111D3CF4130510581F68091CB
:1014900064018D7F80936401CACF933049F4811138
:1014A000C6CF4130510519F6809164018260F2CFB8
:1014B000953041F48091E80080FFFCCF20682093B4
:1014C000E300B5CF963009F0A9C00B8D1C8D22E04A
:1014D0001092E9001092600110925F01F2122EC08A
:1014E00010925E0110925D010E948A051F8299E0B0
:1014F0009983FA8291E09E8390EA98879AEF998780
:1015000020915F0130916001275F3F4F3C832B8327
:101510008D831092E9001092600110925F01109388
:101520005E0100935D0149E050E0BE016F5F7F4FB7
:1015300080E00E947D040E948A0579CF10935E01AD
:1015400000935D010E947605DC0112960D911C91BD
:101550000115110509F451C1D801ED91FC910480E8
:10156000F581E02DBE016B5E7F4FC80109950097A4
:1015700009F03EC1F80100851185EACFF3E0FF12C2
:101580000EC08F89882309F440C0823061F440E89E
:1015900062E18DE091E00E944A04811148CF81E22E
:1015A0008093EB0047CF813029F440E868E084E085
:1015B00091E0F1CF833099F70E947605DC01129615
:1015C000ED90FC908E010F5F1F4F6801E114F10454
:1015D00079F0D701ED91FC910680F781E02DB801FB
:1015E000C7010995080F111DF701E084F184EECFC2
:1015F000D8011C92F60101900020E9F73197BF0154
:101600006C197D0940E0C601C6CF6EEE70E0FB01AB
:10161000449150E080E80E947D0409CF973009F49E
:10162000BECF983021F481E08093F10000CF993053
:1016300009F0FDCE837009F0B2CFE1E0F1E081E086
:1016400031E096E32191222371F08093E9003093F9
:10165000EB00DF0111972C912093EC009093ED00AB
:101660008F5F873079F78EE78093EA001092EA0067
:101670008F8980937301DBCE8B8D9C8D1092E90056
:101680001092600110925F0190935E0180935D0162
:10169000898D811192C08E899D89913A49F4813258
:1016A00009F07DCF47E050E06BE071E080E0B3CF20
:1016B000913209F074CF833269F48F89988DB0E04C
:1016C000A0E08093070190930801A0930901B093D3
:1016D0000A01ADCE803269F48091E80082FFFCCF30
:1016E00067E08BE091E00E9469058BEF8093E80052
:1016F0009ECE823209F09BCE8F8980931201EEEF4D
:10170000FFE7859194918B3F9C4D51F1E0E0F8E02B
:1017100080910B0190910C01A0910D01B0910E01EF
:10172000803B9440A105B105F1F48091120180FD48
:101730001AC0EE3F8AE0F80789F587E797E79183BB
:101740008083809160008093610188E19BE00FB607
:10175000F894A895809360000FBE9093600067CEC8
:10176000EEEFFAE0D5CF808191818737974709F076
:101770005ECEA89580916000886180936000809122
:10178000610180936000EE3F2AE0F20789F08091CA
:10179000FE0A9091FF0A9183808349CE80819181D6
:1017A0008737980751F29093FF0A8093FE0AC5CFBE
:1017B0001092FF0A1092FE0A3ACE0E947605DC01D2
:1017C00012960D911C910115110509F4E8CED8016E
:1017D000ED91FC910190F081E02DBE016B5E7F4F99
:1017E000C8010995811123CEF80100851185EBCF41
:1017F000181619060CF41BCED2CEF1E0FF12BECEA5
:1018000062EF70E004CFEF92FF920F931F93CF939C
:10181000DF93CDB7DEB7C659D1090FB6F894DEBF56
:101820000FBECDBF109277011092760188EE93E043
:10183000A0E0B0E08093780190937901A0937A01C1
:10184000B0937B0189E291E09093750180937401DC
:101850008FEF9FEF90938101809380011092170288
:101860001092160210921A0210921E0210921F027B
:1018700010922002109221028FEF93E0A0E0B0E0DE
:101880008093220290932302A0932402B093250216
:10189000109226021092270210922802109229021A
:1018A00080932A0290932B02A0932C02B0932D02D6
:1018B00010922E0210922F021092300210923102DA
:1018C0008093320290933302A0933402B093350296
:1018D000109236021092370210923802109239029A
:1018E00080933A0290933B02A0933C02B0933D0256
:1018F00010923E0210923F0210924002109241025A
:101900008093420290934302A0934402B093450215
:101910001092460210924702109248021092490219
:1019200080934A0290934B02A0934C02B0934D02D5
:1019300010924E0210924F021092500210925102D9
:101940008093520290935302A0935402B093550295
:101950001092560210925702109258021092590299
:1019600080935A0290935B02A0935C02B0935D0255
:1019700010925E0210925F02109260021092610259
:101980008093620290936302A0936402B093650215
:101990001092660210926702109268021092690219
:1019A00080936A0290936B02A0936C02B0936D02D5
:1019B00010926E0210926F021092700210927102D9
:1019C0008093720290937302A0937402B093750295
:1019D00053E0509376021092190210921B0240E1DC
:1019E00040931C0210921D0225E0298381E08A8326
:1019F00099E09B832C8331EA3D838E8365E86F8376
:101A0000588729878A879B878C8725E12D871E86A3
:101A100027E22F872FEF288B298B1A8A1B8A25E72D
:101A20002C8B4D8B25E92E8B8F8B388F198E9A8FAF
:101A300084E38B8F81E88C8F82E08D8F80EC8E8F9A
:101A40008F8F8FE190E00E9400137C018FE1FE01F7
:101A50003196D70101900D928A95E1F787E090E0E9
:101A60000E9400138C01DC0111961C921E921396A9
:101A7000FC92EE9212978FE190E015969C938E93D4
:101A8000149716961C920E948206FC01A385B485C9
:101A9000109709F08CC01487038785859685D80137
:101AA00014962D913C91820F931F9687858781E034
:101AB00090911B02911101C080E090911A029E5FEB
:101AC000890F809377021092E6011092E70110923D
:101AD000E8011092E9011092EA011092EB011092D4
:101AE000EC011092ED011092EE011092EF011092B4
:101AF000F0011092F1011092F2011092F301109294
:101B0000F4011092F5011092F6011092F701109273
:101B1000F8011092F9011092FA011092FB01109253
:101B2000FC011092FD011092FE011092FF01109233
:101B3000000210920102109202021092030210920F
:101B400004021092050210920602109207021092EF
:101B500008021092090210920A0210920B021092CF
:101B60000C0210920D0210920E0210920F021092AF
:101B70001002109211028FEF9FEF90931302809347
:101B80001202909315028093140290E080E020915D
:101B90001A022817190699F094F0E0911602F091B4
:101BA0001702E80FF91F10820196F1CFDC018D9129
:101BB0009C9111970097D1F70D931C936ECF80E005
:101BC00094E09093C7018093C60180E090E0A0E884
:101BD000B0E48093CD019093CE01A093CF01B09358
:101BE000D00181E08093D1011092DA011092DB01E3
:101BF0001092DC011092DD011092DE0141EA51E009
:101C0000FA01649122E831E0F90184918823C9F056
:101C100090E0880F991FFC01E85AFE4FA591B491FE
:101C2000FC01E65BFE4F059114917FB7F8949C91FF
:101C3000862F809598239C93D8019C9189238C931F
:101C40007FBFE8E4F1E08491FA014491F901249125
:101C5000222309F42EC08823E9F081508F30D0F47C
:101C6000E82FF0E0EA5CF14F0C94E612830E870E49
:101C7000450E7B0E7F0E4A0E4A0E4A0E8A0E900EBD
:101C8000940E980E9E0E4A0EA20E809180008F77C1
:101C900080938000E22FF0E0EE0FFF1FE65BFE4F27
:101CA000A591B4918FB7F8949C91409549234C939A
:101CB0008FBF8CE190E09093C5018093C401109296
:101CC000CC018AE097EDA3E2BCE38093C801909336
:101CD000C901A093CA01B093CB01CA56DF4F0FB61A
:101CE000F894DEBF0FBECDBFDF91CF911F910F9152
:101CF000FF90EF900895809180008F7DC9CF8091F3
:101D00008000877FC5CF84B58F7784BDC3CF84B56E
:101D10008F7DFBCF809190008F7780939000BACF1A
:101D2000809190008F7DF9CF80919000877FF5CFD3
:101D30008091C0008F778093C000ACCF8091C000AD
:101D40008F7DF9CF8091C200877F8093C200A2CFA0
:101D5000789484B5826084BD84B5816084BD85B586
:101D6000826085BD85B5816085BD80916E00816092
:101D700080936E0010928100809181008260809338
:101D8000810080918100816080938100809180003A
:101D900081608093800080919100826080939100A7
:101DA000809191008160809391008091900081608A
:101DB000809390008091C10084608093C1008091E5
:101DC000C10082608093C1008091C10081608093D6
:101DD000C1008091C30081608093C3008091C000E6
:101DE00082608093C0008091C20081608093C200B5
:101DF00080917A00846080937A0080917A0082607A
:101E000080937A0080917A008E7F80937A0080910F
:101E10007A00806880937A001092730110926401B6
:101E2000109263018091D70081608093D70080EA8F
:101E30008093D80089B58F7E89BD89B5826089BDC0
:101E400009B400FEFDCF61E070E080E090E00E9408
:101E5000EA038091D8008F7C80618093D8008091C4
:101E6000E000807F8093E0008091E1008E7E80938F
:101E7000E1008DE08093E200559A209A80E090E1A5
:101E80009093C7018093C60181E08093CC01809339
:101E9000D10180E090E0A0E0BEE38093C801909380
:101EA000C901A093CA01B093CB0180E090E0A0E803
:101EB000BFE38093CD019093CE01A093CF01B09367
:101EC000D0018091C4010E94A1039093E00180930E
:101ED000DF012091E1013091E2013093E401209390
:101EE000E3010E94FD00BC019093E2018093E101B7
:101EF00081E02091E3013091E4012617370709F4CE
:101F000080E08093E5017093680160936701072E7C
:101F1000000C880B990B2DE0660F771F881F991F07
:101F20002A95D1F720E034E040E050E00E943910DB
:101F30006901309366012093650181E08093180266
:101F40000E94F40610923E0210923F02109240024C
:101F50001092410280E090E2A0E0B0E08093420263
:101F600090934302A0934402B09345020D2C000CC1
:101F7000EE08FF08C092F601D092F701E092F80156
:101F8000F092F9018091180281110E94F40680E01C
:101F9000E82E80E0F82E8091C4010E94A103909366
:101FA000E0018093DF012091E1013091E201309363
:101FB000E4012093E3010E94FD008C019093E20173
:101FC0008093E10181E02091E3013091E401201749
:101FD000310709F480E08093E501809167019091D9
:101FE0006801E801C81BD90BC13021E0D20724F0F9
:101FF000CC27DD27C81BD90BC1152FEFD20714F44E
:10200000C80FD91F8091650190916601C80FD91F33
:10201000C13080E2D80714F0C0E0D0E2D7FF02C0A0
:10202000D0E0C0E0CE010D2E000CAA0BBB0B8093BC
:10203000F6019093F701A093F801B093F901809114
:10204000180281110E94F406D0936601C0936501C5
:10205000109368010093670162E370E080E090E014
:102060000E94EA03E114F10409F495CF0E940000F4
:1020700092CF052E97FB1EF400940E94501057FD3E
:1020800007D00E94631007FC03D04EF40C9450104C
:1020900050954095309521953F4F4F4F5F4F089594
:1020A00090958095709561957F4F8F4F9F4F0895C4
:1020B0000E948510A59F900DB49F900DA49F800D48
:1020C000911D11240895A1E21A2EAA1BBB1BFD012C
:1020D0000DC0AA1FBB1FEE1FFF1FA217B307E40707
:1020E000F50720F0A21BB30BE40BF50B661F771F5F
:1020F000881F991F1A9469F760957095809590953F
:102100009B01AC01BD01CF010895A29FB001B39F17
:10211000C001A39F700D811D1124911DB29F700DF0
:10212000811D1124911D08955058BB27AA270E9494
:10213000AC100C9426120E94181238F00E941F1244
:1021400020F039F49F3F19F426F40C9415120EF484
:10215000E095E7FB0C940F12E92F0E94371258F319
:10216000BA17620773078407950720F079F4A6F57C
:102170000C9459120EF4E0950B2EBA2FA02D0B01E2
:10218000B90190010C01CA01A0011124FF27591BBC
:1021900099F0593F50F4503E68F11A16F040A22FC2
:1021A000232F342F4427585FF3CF46953795279533
:1021B000A795F0405395C9F77EF41F16BA0B620B32
:1021C000730B840BBAF09150A1F0FF0FBB1F661F79
:1021D000771F881FC2F70EC0BA0F621F731F841FBC
:1021E00048F4879577956795B795F7959E3F08F0E2
:1021F000B0CF9395880F08F09927EE0F97958795A4
:1022000008950E94EB1108F481E008950E941A11CC
:102210000C9426120E941F1258F00E94181240F0CF
:1022200029F45F3F29F00C940F1251110C945A12AB
:102230000C9415120E94371268F39923B1F35523B9
:1022400091F3951B550BBB27AA27621773078407C9
:1022500038F09F5F5F4F220F331F441FAA1FA9F35F
:1022600035D00E2E3AF0E0E832D091505040E6954D
:10227000001CCAF72BD0FE2F29D0660F771F881FAE
:10228000BB1F261737074807AB07B0E809F0BB0BA1
:10229000802DBF01FF2793585F4F3AF09E3F5105B5
:1022A00078F00C940F120C945A125F3FE4F3983EAE
:1022B000D4F3869577956795B795F7959F5FC9F79E
:1022C000880F911D9695879597F90895E1E0660F1F
:1022D000771F881FBB1F621773078407BA0720F098
:1022E000621B730B840BBA0BEE1F88F7E095089501
:1022F0000E947F116894B1110C945A1208950E94A3
:102300003F1288F09F5798F0B92F9927B751B0F036
:10231000E1F0660F771F881F991F1AF0BA95C9F769
:1023200014C0B13091F00E945912B1E008950C949C
:102330005912672F782F8827B85F39F0B93FCCF34F
:10234000869577956795B395D9F73EF490958095E6
:10235000709561957F4F8F4F9F4F0895E89409C006
:1023600097FB3EF490958095709561957F4F8F4FC8
:102370009F4F9923A9F0F92F96E9BB279395F695DE
:10238000879577956795B795F111F8CFFAF4BB0F5C
:1023900011F460FF1BC06F5F7F4F8F4F9F4F16C0C0
:1023A000882311F096E911C0772321F09EE8872F4A
:1023B000762F05C0662371F096E8862F70E060E006
:1023C0002AF09A95660F771F881FDAF7880F96957F
:1023D000879597F90895990F0008550FAA0BE0E823
:1023E000FEEF16161706E807F907C0F012161306D7
:1023F000E407F50798F0621B730B840B950B39F417
:102400000A2661F0232B242B252B21F408950A267C
:1024100009F4A140A6958FEF811D811D089597F9BC
:102420009F6780E870E060E008959FEF80EC08957A
:1024300000240A94161617061806090608950024A3
:102440000A9412161306140605060895092E03941D
:10245000000C11F4882352F0BB0F40F4BF2B11F491
:1024600060FF04C06F5F7F4F8F4F9F4F089557FDF0
:102470009058440F551F59F05F3F71F04795880FF2
:1024800097FB991F61F09F3F79F087950895121689
:1024900013061406551FF2CF4695F1DF08C0161635
:1024A00017061806991FF1CF8695710561050894E6
:1024B0000895E894BB2766277727CB0197F90895FD
:1024C0000E94EB1108F48FEF08950E9478120C948B
:1024D00026120E94181238F00E941F1220F0952335
:1024E00011F00C940F120C94151211240C945A1222
:1024F0000E94371270F3959FC1F3950F50E0551F5E
:10250000629FF001729FBB27F00DB11D639FAA2748
:10251000F00DB11DAA1F649F6627B00DA11D661F97
:10252000829F2227B00DA11D621F739FB00DA11DB8
:10253000621F839FA00D611D221F749F3327A00D72
:10254000611D231F849F600D211D822F762F6A2F0E
:1025500011249F5750409AF0F1F088234AF0EE0F73
:10256000FF1FBB1F661F771F881F91505040A9F7A0
:102570009E3F510580F00C940F120C945A125F3F4D
:10258000E4F3983ED4F3869577956795B795F795DC
:10259000E7959F5FC1F7FE2B880F911D9695879554
:1025A00097F9089597FB072E16F4009407D077FD4E
:1025B00009D00E94EC1207FC05D03EF4909581955D
:1025C0009F4F0895709561957F4F0895EE0FFF1FFF
:1025D0000590F491E02D0994AA1BBB1B51E107C0A3
:1025E000AA1FBB1FA617B70710F0A61BB70B881FA3
:1025F000991F5A95A9F780959095BC01CD01089532
:102600000F931F93CF93DF938230910510F482E0F4
:1026100090E0E0917A02F0917B0230E020E0B0E0BF
:10262000A0E0309799F42115310509F44AC0281B20
:10263000390B24303105D8F58A819B8161157105EC
:1026400089F1FB0193838283FE0111C04081518196
:102650000281138148175907E0F04817590799F488
:10266000109761F012960C93129713961C93329662
:10267000CF01DF91CF911F910F91089500937A02BE
:1026800010937B02F4CF2115310551F04217530707
:1026900038F0A901DB019A01BD01DF01F801C1CFCA
:1026A000EF01F9CF90937B0280937A02CDCFFE01A8
:1026B000E20FF31F819391932250310939832883CC
:1026C000D7CF2091780230917902232B41F42091C9
:1026D00015013091160130937902209378022091F0
:1026E0001301309114012115310541F42DB73EB786
:1026F0004091170150911801241B350BE09178028D
:10270000F0917902E217F307A0F42E1B3F0B281774
:10271000390778F0AC014E5F5F4F2417350748F05A
:102720004E0F5F1F509379024093780281939193EB
:102730009FCFF0E0E0E09CCFCF93DF930097E9F0EC
:10274000FC01329713821282A0917A02B0917B022F
:10275000ED0130E020E01097A1F420813181820F5B
:10276000931F20917802309179022817390709F0D8
:1027700061C0F0937902E0937802DF91CF910895E0
:10278000EA01CE17DF07E8F54A815B819E0141151A
:102790005105B1F7E901FB83EA8349915991C40FCF
:1027A000D51FEC17FD0761F4808191810296840F9B
:1027B000951FE90199838883828193819B838A8312
:1027C000F0E0E0E012968D919C9113970097B9F597
:1027D0002D913C911197CD010296820F931F20916C
:1027E0007802309179022817390739F6309751F578
:1027F00010927B0210927A02B0937902A093780231
:10280000BCCFD383C28340815181840F951FC817E9
:10281000D90761F44E5F5F4F88819981480F591F36
:10282000518340838A819B81938382832115310563
:1028300009F0B0CFF0937B02E0937A029ECFFD01C6
:10284000DC01C0CF13821282D7CFFB01DC0102C0B2
:1028500001900D9241505040D8F70895F894FFCF61
:1028600000C18081000000FFFFFFFF00E1000000C9
:1028700000000000007C02800000000000BB053763
:1028800006F905DE050000000024035305B4043AF0
:08289000038703450363030005
:00000001FF
